:020000040000FA
:0608000042EF36F0120089
:020806000100EF
:060808001FEF34F01200A6
:02080E000000E8
:0108100000E7
:0108110000E6
:020812000000E4
:0108140000E3
:0608180018EF2FF01200A2
:02081E000500D3
:1008200014080000E70400000100000012080000A6
:10083000E10400000200000011080000E6040000CE
:10084000010000000E080000DA04000003000000B0
:0C085000060800007E000000020000000E
:04085C000B0E4FEF41
:100860000AF01200110E4FEF0AF0ECEC0DF0F3CF8E
:1008700034F00301B951D880F35403E2070E4FEC72
:100880000AF012001DEC0AF0030EE126B8C337F09F
:10089000366A0301EBEC0AF0DE6EB8C3DDFF020E30
:1008A000B9C3DBFFDBCFE6FFA2C3E6FFC2EC0AF071
:1008B00077EC0AF012EF0AF026EC0BF081EC2BF04B
:1008C0000301BB513B080FE3BBC3E6FFB8C337F0DE
:1008D000366AEBEC0AF0E66EB8C3E6FFAAEC31F03C
:1008E000E552E552E55212EF0AF00301B951E8244E
:1008F000E66EA2C3E6FFB7C337F0366AB85100010F
:100900003610346EB7C335F0D89034363536000E15
:100910003426010E352234C0E6FF35C0E6FF77EFFE
:100920000AF0180EE66EA2C3E6FF000EE66E050E94
:10093000E66E77EF0AF05BEC0BF0DFCFA6F3DECFCD
:1009400034F0DDCF35F035C034F035C0A7F3030106
:10095000A86BA96B050E0F6E12EF0AF0BEEC0DF03E
:100960002EEC0BF01AEC0EF0E552E552120026ECDC
:100970000BF0FEEC0DF08CEC0AF0C2EC0AF0F9EC96
:100980000AF012EF0AF0F7EC0DF02EEC0BF0F9EF95
:100990000AF00301B951E66EE66AF9EF0AF046EC97
:1009A0000BF002E0FF0E0CD07EEC0AF0353407E2CB
:1009B00034500008000E355402E2010E01D0000E42
:1009C00034EF0BF046EC0BF003E17EEC0AF006D0BE
:1009D0007EEC0AF0346C351E000E352234C0F3FF75
:1009E00035C0F4FF34EF0BF01DEC0AF0060EE126E3
:1009F000A8EC1CF00301B75D5FE2050EB725E66EBB
:100A00007DEC1CF0E5528CEC0AF00301B729050FD0
:100A1000E66E7DEC1CF0E5522DEC0AF0F350DF1889
:100A200004E13550DE52DD184AE038EC0BF0030EDD
:100A300034C0DBFF040E35C0DBFF66EC0AF0020EAB
:100A4000EFCFDBFF04018E510401925D346E9351B0
:100A500004018F55356E050E34C0DBFFDBCFE7FF99
:100A6000E790E742E7CFDBFF66EC0AF0050EDBCF4D
:100A7000EFFF020EDBCFE6FFE66A3EEC1CF0E5522C
:100A8000E5520BC0E6FF0CC0E6FF3EEC1CF0E55261
:100A9000E5520001B851070A09E0010A05E0030A1E
:100AA00006E170EC1CF003D0012A01D0012ADECF50
:100AB0000BF0DDCF0CF003D00F0E4FEC0AF012EF6D
:100AC0000AF01DEC0AF0030EE12638EC0BF034C0FE
:100AD000DEFF35C0DDFFA3EC0AF0020EEFCFDBFF37
:100AE000DB50FF0843E057EC1CF0F3CF0BF0F4CFE2
:100AF0000CF057EC1CF0F350E66EA3EC0AF0E55254
:100B0000E750EF6E020EDB50356AE834FE0B3536E7
:100B1000346E04018E510401925D386E93510401CC
:100B20008F55396E3850366E376A385034181BE19D
:100B30003750351818E10001B851070A0EE0010AD4
:100B400005E0030A1AE170EC1CF017D0015002080E
:100B500008E376EC1CF0016A10D0010402E176ECA7
:100B60001CF001060AD0100E4FEC0AF076EC1CF0D7
:100B70001050E66EAFEC1DF0E55212EF0AF00001E6
:100B8000B851050A03E0030A01E0120070EF1CF0FF
:100B900050EC0DF063EC0DF0000901E00BD81200F1
:100BA00032EC0AF0F5CF34F0356A34BE3568345093
:100BB000ACEF0AF026EC0BF032EC0AF0F550DF6EE9
:100BC00032EC0AF0010EF5CFDBFFDFCF36F036C096
:100BD00037F0366ADB5040EC0BF0E8500B2637500C
:100BE0000C22CDDF12EF0AF00ED8000901E0E2DF9F
:100BF00012000DD8000901E0D3DF120016D8000959
:100C000001E0CEDF1200F2EC0AF091EF0AF0F2EC14
:100C10000AF0BAC335F0346A0301B9510301341044
:100C2000FC6FBAC3FDF321EF06F0BDC335F0346AA3
:100C30000301BC5103013410FE6FBDC3FFF391EFFC
:100C40000AF00301B751030A1FE0010A15E0020A86
:100C500006E0FD51FF19E8AE1FD0FF3521D0FF514E
:100C6000FD19E8AE02D0FD3504D0FC51FE5DFD510A
:100C7000FF5901E3010C000CFE51FC1902E1FF5188
:100C8000FD1901E0010C000CFE51FC1904E1FF51BB
:100C9000FD1901E1010C000CFE51FC5DFF51FD59F5
:100CA00001E3010C000C49D8C7EF0AF002D8C7EFE6
:100CB0000AF0C3DB050ECDEC0AF001E2DB06B1EC75
:100CC0000AF0F550E66E60EC0AF0FEEC0AF0DF0682
:100CD000010E01E2DB06B1EC0AF0020EF5CFDBFFFC
:100CE000EFDBEE50ED6EEF6AEBDB010E0F0B06E073
:100CF000EC52D890ED32EF32E806FAE1020EDB500A
:100D00007F0B346E356ADCDB3450EE263550ED2235
:100D1000020EDBAE05D0C8DBEE5E3550ED5A04D0D6
:100D2000C3DBEE263550ED22DECF34F0DDCF35F0DB
:100D300034C0F3FF35C0F4FF75D37FDB040ECDEC78
:100D40000AF001E2DB06B1EC0AF0F550E66EB7EC12
:100D50000AF0FEEC0AF0020EDB50800B10E0B7EC5C
:100D60000AF0EE9EED52DECF36F0DDCF37F0020E08
:100D7000DB50365C346E030EDB5037580BD0020E5E
:100D8000DBCF36F0030EDBCF37F0DE503624346E87
:100D9000DD50372034C0F3FFF46E44D34EDB050E34
:100DA000E126BBC339F0386A0301BC510001381099
:100DB000366EBBC337F0E66EBBC3E6FFB6EC0DF094
:100DC000E552E7CF37F0E552E7CF36F03650F35C27
:100DD000346E3750F458E9DB010EB7C3DBFF020E67
:100DE000DBCF34F0030EDBCF35F0010EDB50366E77
:100DF000376AE850345C3750355802E3010E01D0B1
:100E0000020EDB50DF6E070E0B5E000E0C5A9E0EBC
:100E10000301B65D0AE1070EDF24E76E040E16EC4F
:100E20000BF0F550346E356A06D0DF50E824070F1A
:100E3000E76E040E07DB34508FDBF4D2FEDA090EC6
:100E4000E126B6EC0DF0040EF3CFDBFF050EF4CF78
:100E5000DBFFB7C3DFFF010EDB6A070E0B5E000E80
:100E60000C5A050E0B24346E000E0C209EDB880EEF
:100E70000301B65D13E149DB0800F5CF34F0356AB4
:100E800034BE3568060E34C0DBFF070E35C0DBFF0D
:100E9000020EDB2A030E1AE3DB2A18D036DB080029
:100EA0004DEC0BF0E76E31DBE750F626000EF72233
:100EB0000800F550E5DB060E34C0DBFF070E37C037
:100EC000DBFF55DB020EEE26000EED22060EDBCF19
:100ED00034F0070EDBCF35F0040EDB50341804E19C
:100EE000050EDB50351808E0010EDB2ADF50F36EEB
:100EF000010EDB50F35CBBE1080EDFCFDBFF880E99
:100F00000301B65D07E0080EDBCFE7FFE79EE7468B
:100F1000E7CFDBFF080EDBCFE6FF010EDB50E82456
:100F2000E552E724E76E080EE7CFDBFFDB50050F45
:100F3000E76E080E87DA080E34C0DBFFDB50346E34
:100F4000356AE85009DB6ED278DAE652B7C3DFFFC4
:100F5000050EDF5C10E2DFCFE6FF0CEC1DF0E55282
:100F60001050DF5C06E1DF50E4DAEECF0BF0EDCF9E
:100F70000CF076EC1CF0E55277D3050E0301B75D5B
:100F800007E2B7C3E6FFAFEC1DF0E55276EC1CF0CC
:100F90001200BAEF1DF0366A0301B9513610346EF3
:100FA000B8C335F034DAE9D20301B851E66E2FDA6E
:100FB000FEEF0AF02DDBF3CFEEFF35C0EDFF1200A0
:100FC0007ADB21DBBEEC0DF049DBD9CFE6FFDACFCF
:100FD000E6FF6ADBD7DA1AEC0EF0E552E55222D2D0
:100FE00012DBB9C337F0366ABA5100013610346EDD
:100FF000B9C335F0E66EB9C3E6FF22EC0EF0F3CFCD
:1010000038F0F4CF39F071EF0AF020DBF7EC0DF097
:1010100083DAF9DAB7DA22EC0EF01FDA62DA02D2FA
:1010200019DBEE263550ED22120014DBEE5E355052
:10103000ED5A120005DBC1D203DBC6D20BDBEE1684
:101040003550ED16120006DBEE123550ED1212008F
:10105000F7DAB9C3F5FFC5EC29F0F5AE05D0221ECD
:10106000231E222A000E232222C0EEFF23C0EDFF02
:101070001200DBD9341E351ECAD97FD2C9DAF3502B
:10108000EE263550ED221200C3DAF350EE5E3550F5
:10109000ED5A1200C4DA91D2C2DA96D2B9DAF3501C
:1010A000EE163550ED161200B3DAF350EE1235504D
:1010B000ED121200B4DAF4CFF5FFC5EC29F0F5AE6D
:1010C00005D0221E231E222A000E232222C0EEFF5C
:1010D00023C0EDFF1200F0EC0DF0BFD9341E351E19
:1010E000030195D94AD2F29C035002E1F28C000C24
:1010F000189E036A460EE66EB60EE66E030EE66EA8
:10110000CFEC1EF0E552E552E552F28C010E0E6E68
:101110000301A46FB6C3A2F3A21DA56FB6C3E6FF79
:1011200096EC34F0E552000902E0020E01D0010E07
:101130000F6E0301A66B010C80D9E65219B852D08C
:101140000001B851010A4EE0030A4CE004018D5140
:1011500005E08D6BE66A0CEC1DF0E552F5C0DFFF93
:10116000050EDF5C1FE2DF5093D9030A19E1DF505F
:10117000040DF3CFE9FFF4CFEAFF180EE926050EC0
:10118000EA22EE500501005DEE500159EE50025981
:10119000EE50035907E3DFCFE6FFFBEC25F0DDD788
:1011A0002C0E7DD90001B85117E1105071D9050AF4
:1011B00013E0060A11E0010A02E0060A0DE104014B
:1011C000E45105E01050E66E47EC25F004D01050D5
:1011D000E66E4DEC25F0E552F4C010F0050E105C03
:1011E00003E3106A000E07D0105052D9020A02E140
:1011F000005001D0000EE55237D2D9CFE6FFE1CF43
:10120000D9FFE652035008E06EDF000905E00B6AE3
:101210000C6A010E0D6E18D00E6A8EDF0D6E0D5029
:1012200003E17BEC0FF0B3D01050040DF3CFE9FFD6
:10123000F4CFEAFFC70EE926000EEA22EECF0BF04C
:10124000EDCF0CF053EC1DF0F29C189CF28C185072
:1012500019E00E5002E0DF6A03D0DEEC2FF0DF6E03
:10126000400E18140CE00E5002E00D5008E103018E
:10127000A45104E09AEC31F00301A46B86D0DF5056
:1012800001E083D00D060FE10050346E356AFF0E89
:10129000341801E1355004E10E5002E10D6803D02D
:1012A000F29C188CF28C0E5054E10BC0F6FF0CC06F
:1012B000F7FF0800F550F76A100FF66E5D0EF72283
:1012C0000800F5500A6EF86A0BC0F6FF0CC0F7FF75
:1012D000F86AF7BEF8680900F5CFB6F30900F5CF54
:1012E000B7F30900F5CFB8F30900F5CFB9F30A5009
:1012F000040827E20900F5CFBAF30900F5CFBBF3E4
:101300000900F5CFBCF30A5007081BE20900F5CF2E
:10131000BDF30900F5CFBEF30900F5CFBFF30A50C6
:101320000A080FE20900F5CFC0F30900F5CFC1F3B9
:101330000900F5CFC2F30900F5CFC3F30900F5CFDB
:10134000C4F30A50346E356A34500B2635500C22E3
:1013500002D00B6A0C6A0301B651F66EF76AD89098
:10136000F636F736000EF6266E0EF7220900F5CF98
:1013700034F00800F5CF35F004D035C0FAFF345012
:10138000F96EFBDF7BEC0FF062D706D83BD7E55256
:10139000E552E7CFD9FF12000E5001E012001050C5
:1013A00077D8010A08E0010A06E01050C2D80BC045
:1013B000EEFF0CC0EDFF91EC1DF0DFEF09F0000136
:1013C000B851050A1EE0020A19E0010A13E00F0AEB
:1013D0000CE0030A08E0080A01E012000E5015E0D4
:1013E000B6C3BDF012D0B86B02D0010EB86FD1EC0D
:1013F00014F00BD00150010808E305D0015005E1BD
:1014000002D00E5002E1010EB86FEBEF14F0B751AD
:10141000E96EEA6AD890E936EA36000EE926010E4E
:10142000EA221200D9CFE1FF1FD1366A0301B85179
:101430003610346EB9C335F01200D9CFE6FFE1CFD4
:10144000D9FF1200F3D829D90B24F66E000E0C2018
:10145000F76E0800F55040EF0BF0F3CF34F0F4CF07
:1014600035F012000B06000E0C5A2AD134C02BF0B6
:10147000B9C32CF0EECF26F0EDCF27F01200F3CF5A
:101480002BF0F4CF2CF0EECF26F0EDCF27F01200AA
:10149000EA6AC20FE96E000EEA22EF501200E66E11
:1014A00057EC15F0E5521200030EDBCF34F0040EBA
:1014B000DBCF35F0D9CFE9FFDACFEAFF34501200A5
:1014C000D950030FE96EDACFEAFF1200030EDBCF2B
:1014D000E9FF040EDBCFEAFF030EE926000EEA2245
:1014E0001200F3CFE6FFF4CFE6FF54EF0BF071EC00
:1014F00031F0E552E552E552E5521200FD0EDBCF28
:1015000034F0FE0EDBCF35F01200020EDBCFF6FF1B
:10151000030EDBCFF7FF1200F3CFDEFFF4CFDDFFCA
:101520001200B6EC0DF0F3CFFCF3F4CFFDF321EF96
:1015300006F0040DF3CFE9FFF4CFEAFFC70EE9266A
:10154000000EEA221200DECFE9FFDDCFEAFF030E34
:10155000E926000EEA2212000B2635500C22BFEFBE
:1015600005F0DECFF6FFDDCFF7FF08001200D950FF
:10157000020FE96EDACFEAFF120034C0EEFF35C089
:10158000EDFF1200DECFE6FFDDCFE6FF1200F3CF66
:101590000BF0F4CF0CF0BFEF05F0E1260BC0DEFF3F
:1015A0000CC0DDFFDF06010E1200356E020E34C0E6
:1015B000DBFF030E35C0DBFF120079EC2AF024C0FC
:1015C000EEFF25C0EDFF1200C5EC29F026C0EEFFAE
:1015D00027C0EDFF1200B75100013610346EB8C3BA
:1015E00035F01200D8EC0DF0F3CFFEF3F4CFFFF39B
:1015F00012001EEC0EF0E552E5521200E552E750E3
:10160000EE6EED6A1200070E0301B615E66E1200CB
:10161000F0EC0DF0F4CF35F0030107EF0AF0F0EC39
:101620000DF01BDF0301F3DE3FEF0AF0E7CFDBFF36
:10163000DB50346E356AE8500B2635500C2240D012
:10164000B9C337F0F2DEE3DE36EF0AF0F6DE020E63
:10165000E1261200EADEDBDE34501200FEDEF3CFBC
:10166000E6FFF4CFE6FF1200E552E7CFD9FF120004
:101670001050040DF2DEC70E3426000E3522120083
:1016800000013610346E37C035F01200D6DEFE0E83
:10169000DBCF35F0800E35141200F5CF36F036C0B2
:1016A00037F0366A010E120097EC2AF0F56E050E3F
:1016B000E15EF5501200CADFBAEC0DF08CEF0AF0D3
:0C16C0000BC0F6FF0CC0F7FF0800120082
:0416CC00B7C3E6FFBB
:1016D0002CDB28D35ADB5EDB030EE926000EEA2260
:1016E000EFCF60F057DB020EE926000EEA22EFCFC3
:1016F00061F050DB010EE926000EEA22EFCF62F026
:1017000049DBEFCF63F060C024F061C025F062C018
:1017100026F063C027F093D338DB020EE12696DA79
:10172000F3CFDEFFF4CFDDFFDECF34F0DDCF35F0D9
:10173000000E345E355A34C0E6FF35C0E6FF7ADA73
:10174000E552E552D9CFE1FF7AD3B8C3E6FFF9DA23
:1017500054D3BAC3E6FF01DB50D3BBC3E6FF09DBBA
:101760004CD313DBFE0EDBCF34F034340EE2FE0E2E
:10177000DBCF35F01F0EE76E3518E8AE02D03534FA
:1017800003D0E750D880355405E20E0EE66E57ECD4
:1017900015F0E55254D3F9DA0C0EE12697DF040E6A
:1017A000F3CFDBFF050EF4CFDBFF3ADBF350F41091
:1017B00061E00301BD51140A4DE0050A3BE0020A55
:1017C00028E0030A1BE0020A0CE01D0A53E1D6D907
:1017D000060E72DA070B4EE0EF46EF90E806FCE1EA
:1017E00049D0CCD9070E2FDB35DB070EDB50070BBA
:1017F00041E0EF42EF9EE806FCE13CD0BFD9080E85
:101800005BDAF35037E0D890EE36ED36E806FBE1D0
:1018100031D0B4D9090E17DB090EDBCF34F01ADB57
:1018200034500F0B27E0EC52D890ED32EF32E8063F
:10183000FAE120D0A3D90A0E3FDAE76E1BE0D89078
:10184000EF36010EEB36020EEB36030EEB36E706F3
:10185000F6E110D093D90B0E2FDA1F0B0BE0E76ED9
:10186000D890030EEB32020EEB32010EEB32EF3268
:10187000E706F6E1D9CFE1FFE2D2BAC334F0356A28
:10188000366A376A34AE03D0356836683768FCD1BB
:10189000BAC339F0386A0301BB5100013810346E05
:1018A000BAC335F0366A376A35AE02D03668376863
:1018B000EBD16BDA040EE126A2DA1AD266DA040E54
:1018C000E12647DF15D261DA020EE126FFDEF3CF13
:1018D000DEFFF4CFDDFF070E0301B61561E0060A57
:1018E00050E0030A45E0010A3AE0030A1FE0040A57
:1018F00011E0010A0BE0030A5BE153DAEE5E61518D
:10190000EE5A6251EE5A6351EE5A52D0DFD95EEC74
:1019100034F01CD0DBD918EC2AF027C0EDFF26C02C
:10192000EDFF25C0EDFF24C0EFFF42D0CFD963C04B
:10193000F5FF18EC2AF0F5AE09D0201E211E221E5C
:10194000231E202A000E21222222232223C0EDFF63
:1019500022C0EDFF21C0EDFF20C0EFFF29D021DA2A
:10196000EE166151EE166251EE166351EE1620D05E
:1019700018DAEE126151EE126251EE126351EE125C
:1019800017D060C034F061C035F062C036F063C07B
:1019900037F0341E351E361E371E70DA66DA08D070
:1019A00000DAEE266151EE226251EE226351EE2200
:1019B000D9CFE1FF44D271D863EF0CF020DA27DAF7
:1019C00063EF0CF06AD860C0E6FF61C0E6FF32D971
:1019D000E552E5521200D2D823DA366A376A35AEBC
:1019E00002D03668376850D1D0D9FE0EDB502B0AB2
:1019F0001CE01A0A1AE0030A18E01F0A16E0190A86
:101A000014E00E0A12E0040A10E0050A0EE0150ABE
:101A10000CE0120A0AE0130A08E01F0A06E01C0A9A
:101A200004E0110A02E00E0A02E1010E01D0000EEC
:101A300006D2ABD9FC0EDBCFE6FFD6DFE5520009BC
:101A400013E0FC0EDBCFE6FFB0D92DEC18F0E55229
:101A5000E552E55218DAEECF34F0EECF35F0EECFA6
:101A600036F0EFCF37F010D0A0D9FC0EDBCFE6FF79
:101A7000F2EC15F0E552E552E552D2D9366A376AF2
:101A800035AE02D03668376834C024F035C025F052
:101A900036C026F037C027F0D2D15BDE07EF0FF05B
:101AA00054DE24C068F025C069F026C06AF027C063
:101AB0006BF053DE24C064F025C065F026C066F0EC
:101AC00027C067F012000301B751010A3BE0020A88
:101AD00028E0010A16E0A9D9030EEBCFF3FF0001BD
:101AE0006751F318E8AE02D0F33408D0EE50645DCD
:101AF000EE506559EE506659EE50675901E3010CFE
:101B0000000C93D9EE500001641908E1EE506519FC
:101B100005E1EE50661902E1EE50671901E0010C93
:101B2000000C83D9EE50000164190BE1EE506519E9
:101B300008E1EE50661905E1EE50671902E101E196
:101B4000010C000C72D9030EEB5000016719E8AECE
:101B500002D0673508D06451EE5C6551EE5866518D
:101B6000EE586751EE5801E3010C000CEAD8B8C3F7
:101B7000E6FFA9D0DAD8B7C3E6FFA5D0EED8BAC33E
:101B8000E6FFA1D0BFC337F0366A0301BE5169D961
:101B9000BFC335F0E66EBFC3E6FFBDC3E6FF93D01B
:101BA0000BD9C1C3E6FF8FD0C1C3E6FF05D9BAD0B8
:101BB000E0D8BBC3E6FF87D0B8C3E6FFC2D8B2D037
:101BC000BBC3E6FFD6D8AED0BEC3E6FF01D9AAD0CC
:101BD000FFD8BEC3E6FF77D02DD9B7C3E6FF73D0D9
:101BE0000301B951E66EE66AB8C3E6FF6CD00301A3
:101BF000BA51E66EE66AB9C3E6FF65D0BBC337F0FB
:101C0000366A0301BA512DD9BBC335F0E66EBBC3AA
:101C1000E6FFB9C3E6FF57D00301BC51E66EE66AA2
:101C2000BBC3E6FF50D00301BE51E66EE66ABDC3FA
:101C3000E6FF49D0AAD8B9D878D8D6D0A6D8B5D892
:101C4000F9D8D2D0B7C3E6FFF5D86CD0BAC3E6FF57
:101C500084D868D0070E0301B615E66E8FDFE0D892
:101C6000F3CFE6FFF4CFE6FF31DDF3CF36F0F4CF6C
:101C700037F0F3CFE6FFF4CFE6FF97EC2AF0F56EEE
:101C8000050EE15EF550120034C0E6FF35C0E6FFF8
:101C900036C0E6FF37C0E6FF19DDE552E7CF37F083
:101CA000E552E7CF36F0E552E7CF35F0E552E7CF22
:101CB00034F0E9D835EF0FF0C6D860DFF3CF34F059
:101CC000C9D8F3501200F2EC15F0E2D0D7D860C0BA
:101CD00029F061C02AF062C02BF063C02CF0EECF77
:101CE00024F0EECF25F0EECF26F0EFCF27F0120054
:101CF00024C0DEFF25C0DEFF26C0DEFF27C0DDFFDB
:101D0000DD52DD52E3DCBFD8DFCFEEFF010EDBCFCB
:101D1000EEFF020EDBCFEEFF030EDBCFEEFFD9CFDF
:101D2000E1FF8DD02DEC18F0B3D0B9C337F0366A8F
:101D30000301B85196D8B9C335F0E66EB9C3E6FFD2
:101D40001200BAC337F0366A0301B9518AD8BAC350
:101D500035F0E66EBAC3E6FF1200BCC337F0366A50
:101D60000301BB517ED8BCC335F0E66EBCC3E6FFB1
:101D70001200BDC337F0366A0301BC5172D8BDC32F
:101D800035F0E66EBDC3E6FF1200D9CFE6FFE1CF26
:101D9000D9FF1200FD0EDBCFE9FFFE0EDBCFEAFF1D
:101DA00012006CD8000160511200FD0EDBCFE6FF7F
:101DB000FE0EDBCFE6FF1200C3C337F0366A030125
:101DC000C2514FD8C3C335F0E66EC3C3E6FF12005D
:101DD000C0C337F0366A0301BF5143D8C0C335F0E2
:101DE000E66EC0C3E6FF1200B7C3E6FFF1EC16F0E3
:101DF000F56E050EE15EF55022D01BDE49D0BA0E1D
:101E0000E66E030EE66E66DCE552E552120024C073
:101E100060F025C061F026C062F027C063F01200B8
:101E2000F3CF34F0F4CF35F01200680EE96E000EF7
:101E3000EA6E12000301B851E66EE66A1200E5523E
:101E4000E7CFD9FF1200F3CFDBFFDBCFE6FF89DC62
:101E5000E5521200040EDBCFE9FF050EDBCFEAFFEF
:101E6000120000013610346E120034C0EEFF35C08F
:101E7000EEFF36C0EEFF37C0EEFF1200DECFE9FF07
:101E8000DDCFEAFF1200F3CFE9FFF4CFEAFF120043
:081E9000E552E552E552120093
:081E9800F1DAFC0EDBCF34F09F
:101EA000FD0EDBCF35F0366A35BE3668C0DA1CDB96
:101EB000E1D29D9CC26A0001806B12000001802B60
:101EC0000401E3510001805D04E3F3DF0001B16B25
:101ED0001200805136DBEF50F1E08051040DF350D9
:101EE0000109C26E010EB16F12000001B15102E191
:101EF0008069E4DF12000001B151030A12E0010A17
:101F000007E0030A03E0010A1AE01200020E07D0FC
:101F10008051040DF35001090209C26E030EB16F26
:101F20001200C2B212008051E96EEA6AD890E93616
:101F3000EA3619DBC3CFEEFFC4CFEDFFBFDF1200DF
:101F4000F286F19E120003DB95D201DB01E3F8DF9C
:101F500091D2060EE66EE66AE668B20EE66E000EF6
:101F6000E66E76EC33F0F56E050EE15E120086DA71
:101F7000E652DF6A060EDF5C0CE2DF50A2DAEFCF3A
:101F800034F0FE0EDB50345C02E1DF5003D0DF2A78
:101F9000F1D7FF0EE5526ED271DAE65278DAE7DF5A
:101FA000E552DF6E060EDF5C07E2DFCFE6FFCBDF38
:101FB000E552DF5086DAEF68060EF36EFD0E87DA23
:101FC0000BE2FD0EDB507DDAFE0EDBCFEFFFFD0EE8
:101FD000DBCFE6FFBADFE552E5524CD2C9DAEF506B
:101FE00049D2C6DAFD0EDBCFEFFFDB5033080AE142
:101FF0004EDA03EC27F0E552E66A49DA3DEC27F0C9
:10200000E55203D044DAFFEC26F0E552FD0EDB503A
:102010002D0A21E0290A1FE0340A17E01F0A0DE00B
:10202000010A22E1A8DA040EEE6E010EED6EA6DAC8
:10203000100EEE6E0E0EED6E10D09DDA020EEE6EEC
:10204000ED6A9CDAEE6AED6A08D021DA90DFE5529B
:10205000E66E7BDFE5526CDA05D093DAEE6AED6A64
:102060001ADAEF6AF7D9EF6A05D208DAE6523DDFED
:10207000DF6A100EDF5C1BE2DF5063DAEF502F0ADD
:1020800010E0010A0EE02A0A07E0290A0EE1DFCF7C
:10209000E6FFDEEC28F008D0DFCFE6FF6DEC26F09F
:1020A00003D0DFCFE6FF05D8E552DF2AE2D7E552BD
:1020B000E1D1E4D90C0EE126CDD9EF50030A01E1BC
:1020C00087D0010A16E0030A09E0010A01E080D086
:1020D000C9D9C80EEF6EBED9010E77D0C3D9EF06AD
:1020E000EF50000801E2B6D0BDD9EF68B3D9020EB7
:1020F000EF6EA9D9E0D9366A9AD9FDD9B3D9EF06DE
:10210000EF50000801E2A6D092D9EECFDFFF010E1A
:10211000EECFDBFF020EEECFDBFFDFCF34F0010EA0
:10212000DBCF35F0020EDBCF36F02A682B6A2C6A43
:10213000E9D9E1EC35F0050E25C0DBFF060E26C01F
:10214000DBFF1FDA050EDBCFEEFF060EDBCFEDFF68
:10215000050EDBCF37F0060EDBCF38F0FF0E38026E
:10216000F3CF38F03702F3CF37F0F4503826396A1E
:10217000D9CFE9FFDACFEAFFF350EE5C346E385086
:10218000EE58356E3950EE58366E030E34C0DBFF14
:10219000040E35C0DBFF030E346E356ADBCF26F04C
:1021A000040EDBCF27F034C02BF035C02CF019EC37
:1021B00036F0070E26C0DBFF080E27C0DBFF6BD909
:1021C000070EDBCFEFFF46D9030EEF6EB1D942D039
:1021D0003AD9C9D9EECF36F0EFCF37F0D2D9EE5099
:1021E000365C346EEE503758356E090E34C0DBFF66
:1021F0000A0E35C0DBFF47D9EF502E0A06E06CD936
:1022000035BE366814D970D925D02CD90B0EEFCF36
:10221000DBFF3F0EF36E0B0E5AD908E20B0EDB28E4
:10222000E66E20D9E552E750EF6E0FD034D9EF506B
:10223000346E356AD950090FE96EDACFEAFF3450AF
:10224000EE5E3550ED5A0ED9EF6A46D935BE366886
:10225000EED851D9D9CFE1FF0DD1D9CFE6FF0AD1C0
:102260000DD9060EE1260FD9EF502E0A34E0010AEF
:1022700032E01F0A24E0340A22E0290A20E0010AA1
:1022800013E01F0A0AE0320A01E078D066D902E0C2
:10229000F36A26D0010EF36E23D0F9D84BEC27F069
:1022A000E552346E356A6CD058D902E0000E01D088
:1022B000010E346E356A34AE63D0356861D0F29C5D
:1022C000B6D8EECFDEFFEDCFDDFFF28CDECF34F0FF
:1022D000DDCF35F055D0BED8EF50030803E0F36AE8
:1022E000F46A52D048D9EECF37F0EFCF38F0396AE0
:1022F0009ED8EECF34F0EECF35F0EFCF36F002D9E6
:1023000037C02AF038C02BF039C02CF0EBEC29F0A4
:10231000020E25C0DBFF030E26C0DBFF2FD9040E03
:10232000EECFDBFF050EEDCFDBFFD950040FE96EDA
:10233000DACFEAFFEE50ED101AE0020EDBCF26F006
:10234000030EDBCF27F0040EDBCF2BF0050EDBCF27
:102350002CF0C5EC29F0050EDBAE04D0226C231E58
:10236000000E232222C034F023C035F009D0020E23
:10237000DBCF34F0030EDBCF35F002D064D89BD82E
:1023800034C0F3FF35C0F4FFD9CFE1FF73D0F0D8EC
:10239000EF50300A13E0340A11E02A0A0BE0010A78
:1023A00009E01C0A0FE1FC0EDBCFE6FF70D83DEC24
:1023B00027F011D04FD8EF5003080FE1000EE66E62
:1023C000E66A06D0FC0EDBCFE6FFFD0EDBCFE6FFB4
:1023D0005ED862DDE552E552E5524CD04FD857D871
:1023E0003FDFE552F350F41002E1000E01D0010E80
:1023F00041D0100EE66EE66A000EE66E020E53EF56
:1024000012F0300EE66EE66A800EE66E020E4BD8D3
:10241000100EE66EE66A810EE66E000E44D8100ECF
:10242000E66E90EC26F0E55294DDD7EF28F0FE0E34
:10243000DB50030DF3CFE9FFF4CFEAFF800EE9266E
:10244000020EEA221200FE0EEA6ADB34FE0BEA36C6
:10245000E96E1200FE0EDB50EA6A810FE96E000E93
:10246000EA221200FE0EDB50EA6A100FE96E020E3D
:10247000EA221200E552E7CFD9FF1200D9CFE6FFDA
:10248000E1CFD9FF1200FE0EDB50A1EF12F0FE0EDD
:10249000DBCFE6FF1200FE0EDB50EA6AF00FE96EBA
:1024A000020EEA221200E66E35EC35F0E552E552F6
:1024B000E552E552120057D8EECF34F0EFCF35F0A9
:1024C0001200EA6AB20FE96E000EEA221200DBCFB8
:1024D000F4FFF350F45C1200090EDBCF34F00A0E67
:1024E000DBCF35F0366A120034C0EEFF35C0EEFFA8
:1024F00036C0EEFF12003450EE263550EE22365034
:10250000EE22120034C025F035C026F036C027F088
:102510001200400EE926020EEA221200600EE926A1
:10252000020EEA221200200EE926020EEA22120012
:10253000000EE66EE66AABDFAFDCE552E552E5522F
:102540001200EA6A000FE96E020EEA22120096DF1C
:10255000020EF36EFE0E67EF12F099DF07EC27F024
:10256000E55200091200910EE926000EEA2212003F
:1025700085DF43EF12F067DF89EF12F064DF8EEF43
:0825800012F061DF93EF12F08D
:082588000701F069F16B230E5D
:10259000E66EE66AB80EE66E000EE66E35EC35F0D5
:1025A000E552E552E552E5520001030EB86F120004
:1025B000020E0001B85D02E1010EB86F1200E1EFFA
:1025C00012F00001BC6BBB6BC06BC16BD8EF12F09B
:1025D000DEDA0301B751DE6EDD6A010EDB50010B5E
:1025E00002E0D0EC1DF0DF50040B02E050EC35F0BF
:1025F000DF50080BDF50200B01E0F9D8DF50010B52
:102600000EE0020EDB6A040EA5DA09E2020EDBCF51
:10261000E6FF88EC2DF0E552020EDB2AF4D7DF50FE
:10262000400B02E0CEEC2DF05BD2B1DAB8C3DFFF95
:10263000DF5073DA030A13E0040A11E0050A0FE021
:10264000040A08E0020A06E0010A04E00301010EA0
:10265000A66F33D0DFCFE6FFFBEC25F0E552DF506D
:10266000106EDFCFBAF0040E0001356ADB25346E40
:10267000DC513522010E34C0DBFF020E35C0DBFF1A
:10268000BAC337F0366A0301B9513610346EBAC393
:1026900035F0D950010FE96EDACFEAFF3450EE265B
:1026A0003550ED22DF505ADA010EDBCFEEFF020E7D
:1026B000DBCFEDFF0001010EB86F7ADF11D277DAC0
:1026C000B7C3DFFF010EB8C3DBFF0301A36BDF500D
:1026D000010A30E0030A2EE00B0A1BE0030A19E0AE
:1026E0000F0A12E0030A10E0010A0EE0070A09E0EF
:1026F000040A24E1E66A0CEC1DF0E552010EDF6EDF
:1027000019D00001B80516E1B9C3A3F3010E016E9B
:1027100006D0010EDB5001DA06080CE1010EDBCF1A
:10272000E6FFFBEC25F0E552010EDBCFE6FF47ECC0
:1027300025F0E552DFCFB8F04ED903D00301010EEA
:10274000A66FCED1DCD9E6521BDAEECFF6FFEFCF83
:10275000F7FF0800F5CF34F0FC0EDB50345C17E0D7
:10276000FC0EDB50DF6E0CDAEECFE6FFEFCFE6FFBC
:10277000010EE66EE66AD9CFE6FFDACFE6FF97EC08
:102780002BF0F56E060EE15EF55081EC2BF0E55274
:1027900012D2FDD90B06000E0C5A020EDB6A060E91
:1027A000D9D90FE2020EF7D90B50DF1807E10C5010
:1027B000DE52DD1803E1020EA7D903D0020EDB2A98
:1027C000EED7060ED5D90001080EB86F76EC1CF0D6
:1027D00087D10C0EE66EE66AE66ADD0EE66E000E46
:1027E000E66E76EC33F0F56E050EE15E1200E5D88C
:1027F000E9EF13F0CCD9FE0ECED9D9CFE9FFDACF6D
:10280000EAFFEE50ED1002E1000E31D0FE0E7CD951
:10281000FE0EE4D9EE6AED6A020EDB6A050E9AD965
:1028200025E2020EDB509AD9EECF34F0EFCF35F02F
:10283000DF50341818E1DE52DD50351814E1020E75
:10284000DB506BD906080FE1040EE66E020EDBCFFB
:10285000E6FFF4EC25F0E552E552080E0001B85D04
:1028600002E1010EB86F020EDB2AD8D7010E38D173
:102870009ED9DBC036F0DCC037F0386A396A040E06
:102880003626000E372238223922FE0EDB50E8248D
:102890003B6A3C6A3D6AE85036263B5037223C5042
:1028A00038223D50392236C0F6FF37C0F7FF090005
:1028B000F5500001DB25346E0900F550DC210001E4
:1028C00034C0DEFFDD6EFC0EDBCF36F0FD0EDBCF5D
:1028D00037F0DE503624346EDD50372034C0F3FF3D
:1028E000F46EFED064D9060EF36EFE0E72D902E3CA
:1028F000DAD825D0FB0EDBCFE6FFFC0EDBCFE6FF00
:10290000FD0EDBCFE6FFB4DFE552E552E552F3CF33
:10291000DEFFF4CFDDFFFE0E61D9DECFEEFFDDCFAF
:10292000EDFFDECFF6FFDDCFF7FF0800F550E66ED6
:10293000FE0EDB5036D9E552E750EF6E32D8D0D0DC
:10294000DED8E6527F0E0301B715DF6E060EDF5CA0
:1029500002E3A9D824D0DFCFE6FF4CDFE55200091F
:1029600006E10301B7AF03D00301010EA66F030117
:10297000B7BF15D0BAC337F0366AB9510001361067
:10298000346EBAC335F0E66EBAC3E6FFB8C3E6FFED
:10299000DFCFE6FFA7DFE552E552E552E552E5520B
:1029A0000AD1F5D8DF6A060EDF5C06E208D902E03C
:1029B000E80EC8D8DF2AF7D793D0E9D8DF6A060E29
:1029C000DF5C08E2FCD804E0DF50EBD8EF50BAD867
:1029D000DF2AF5D785D0EBD8010EDB6ADF6A050E5A
:1029E000DF5C09E2DF5099D804E0010A02E0010E41
:1029F000DB2ADF2AF4D7010EDB500EE1010E006E58
:102A0000030E0001B85D33E0030EB86F3AEC30F00E
:102A1000F29C1884F28C2BD00001B851090A23E0F3
:102A2000030A21E00F0A1CE0030A1AE0010A16E07B
:102A3000070A03E0030A1AE1B86B020EF36E010EF7
:102A4000C8D80CE3F0C727F0010EDBCF2CF071ECF7
:102A500036F02750006E27500AE105D0006807D0F5
:102A6000A3C300F004D0010E006E01D0006A38D07C
:102A70000C0E39D0140E37D0120EE66E18D8E5526F
:102A8000F368F4681200280E2ED0130E2CD01F0EFF
:102A90002AD0200E28D03B0E26D0050E24D0020EC0
:102AA00022D0010E20D0190E1ED0030E1CD027D824
:102AB0000E5006E0FE0EDBCFBCF0A2C3BDF00FD07F
:102AC0000001020EB86FFE0EDBCFBBF00BC0C0F0F2
:102AD0000CC0C1F0BD6B040E4BD876EC1CF06BD073
:102AE000D9CFE1FF68D0E66EE2DFE5521200FE0BBF
:102AF000EA36E96EDD0EE926000EEA221200D9CF91
:102B0000E6FFE1CFD9FF1200DB504BD8EF50E66E65
:102B1000DECFE6FFDDCFE6FF57D0EA6AC20FE96EEF
:102B2000000EEA22EF501200010EEECFDBFF020E84
:102B3000EDCFDBFFD950010FE96EDACFEAFFEE509F
:102B4000ED101200E66E010EDBCFE6FF020EDBCFCA
:102B5000E6FF3AD0F36E020EE9EF15F0040DF3CF65
:102B6000E9FFF4CFEAFFC70EE926000EEA221200C1
:102B7000E66E1050E66EF4EC25F0E552E5521200D8
:102B8000D950FD0FE96EFF0EDA20EA6E1200B7DFB2
:102B9000030EE126120022D8EECFDEFFEDCFDDFFDF
:102BA0001200EA6AE90FE96E000EEA221200A7DFBE
:102BB000020EE1261200E552E7CFD9FF1200EA6AC1
:102BC000DF3495DF94EF15F0BDDDE552E552E552B7
:102BD0001200DBCFF4FFF350F45C1200EA6ADB343E
:042BE00077EF15F086
:0C2BE40078DAFE0EDB502B0A4BE0220AD0
:102BF00045E00B0A41E0FE0EDB50180A01E1ECD083
:102C00001C0A01E1BDD0220A01E1B6D0010A01E1AE
:102C1000ACD0290A01E1A5D0030A01E19BD0010A49
:102C200001E196D0070A01E191D0010A01E184D0C7
:102C3000330A01E17DD03C0A64E0130A5CE00C0A2F
:102C40005AE01B0A58E02E0A53E01F0A51E00C0A12
:102C50004BE0120A41E0020A3AE0180A34E0190A8D
:102C600029E01E0A23E00D0A1FE0040A1BE03C0ACB
:102C700011E0010A0BE012D087DAACD095DA30EC23
:102C800011F0ADD0FC0EEA6ADB3424D09BDA31DAE5
:102C900066DAA9D7FD0E2DDA95DAA5D73CEC15F04A
:102CA000F3683BD09DDA58D063DA23D00E50F6E1BA
:102CB0003ADA51D0FC0EDB5061DAEFCF34F0356AEE
:102CC00034AE88D041D0FC0EDB5058DA0FD0AADAEF
:102CD000EF34EA6A9CDA3FD0ECD91BDAEFCF34F05C
:102CE000356A34AE77D030D0E4D913DAEF5041D022
:102CF000E0D90FDA31D0FE0E91DA30EC2DF0E5524A
:102D00006ED0080EF36EFC0EDBCFF4FFF350F45CD4
:102D100006E34FEC15F0FC0EF36EF46861D044DA74
:102D200000EC2EF0E552346E356A34AE53D00CD040
:102D30003BDAFDEC2DF01CD037DAEEEC0FF0E5526B
:102D4000346E356A34AE46D0356844D0F6D903D0F7
:102D5000FAD901D0FED9EA22EECF34F0EFCF35F028
:102D600039D022DAEEEC11F003D01EDAB7EC0FF016
:102D7000E552346E356A2ED017DAA8EC26F02FD043
:102D8000010EE76EFC0EDBCF38F0FD0EDBCF39F025
:102D9000E7503826000E392238C0E6FF39C0E6FF7A
:102DA000CAEC35F0E552E7CF39F0E552E7CF38F01D
:102DB000F3CF36F0F4CF37F0F3CF26F0F4CF27F08F
:102DC00038C02BF039C02CF019EC36F022C034F0AA
:102DD00023C035F000DA04D0E7D97DEC22F0E552CB
:102DE00076D179D9020EE126FE0EDB50180A01E1F8
:102DF000B5D01C0A01E1AED0230A01E1A7D02A0A0E
:102E000001E19BD0010A01E196D0070A01E191D0CE
:102E1000010A01E18AD0030A01E183D01F0A01E11E
:102E20007CD00C0A01E179D01B0A01E176D0380A86
:102E300070E03C0A6AE0360A4FE01C0A4AE0010AE8
:102E400037E0120A35E0110A30E0190A2EE0180ABC
:102E500027E0120A23E0040A1FE0110A10E02D0AFD
:102E600009E0010A01E081D0ADD9FC0EFD0E41D987
:102E700076D9BAD7FC0EFD0E3CD9A4D9B5D784D9E2
:102E8000800E345C000E355803E34BEC15F06FD028
:102E9000FC0EEA6ADB3407D0A3D951D069D91AD025
:102EA000C1D9EF34EA6AB3D949D0FC0EDB500CD05B
:102EB000B9D9EF50DE6EDD6AFC0EFD0EA3D9355098
:102EC000DE26000EDD22DF5059D9FA0EDBCFEFFFF0
:102ED0004ED0EFD81ED933D00E5047E1FA0EDBCFDB
:102EE00034F0FB0EDBCF35F0366A376A35AE02D0F0
:102EF0003668376818D9EA2234C0EEFF35C0EEFFD5
:102F000036C0EEFF37C0EEFF32D0F9D819EC2EF004
:102F100028D006D9EEEC2DF025D046D988EC2DF03E
:102F200022D0EDD8C7EC11F01CD0FAD8F1EC0FF09C
:102F300019D003D903D007D901D00BD9EA22FA0E50
:102F4000DBCFEEFFFB0EDBCFEDFF11D0E9D8CCECF1
:102F50000FF008D04BD9C3EC35F004D0D0D85EECDC
:102F600023F0E552E552E55202D043EC15F0D9CFFB
:102F7000E1FFADD0B0D8FD0E356ADB343ED1ABD821
:102F8000FD0EDBCF34F0FE0EDBCF35F09AD89FD0AC
:102F900002D9A6D8DECF34F0DDCF35F092D8D9CF24
:102FA000E1FF95D0F8D804D1F6D8D9CFE9FFDACF30
:102FB000EAFF010ED890EE36ED36E806FBE1F8D0D8
:102FC0008AD8FD0E70D8EF34356A17D1D9CFE6FF15
:102FD0001050040DF3CF34F0F4CF35F0780E3426D2
:102FE000040E3522F8D873D076D8FD0E5CD8EECF1B
:102FF00034F0EFCF35F0EFD86AD06DD8FE0EDBCFCE
:1030000039F039C038F03950376AFD0E4CD8395094
:10301000EE24346E3750EE2034C0F3FFF46E57D0F8
:103020005AD84BEC15F0F36AF46A51D054D8E150F9
:10303000FD0FE96EFF0EDA20EA6EEE50ED1003E1AF
:10304000F36AF46A09D0FD0EDBCFE6FFFE0EDBCF9C
:10305000E6FFE6DFE552E5523AD0D9CFE6FFE1CF11
:10306000D9FFFC0EF76ADB34FE0BF736F66EBE0EA8
:10307000F626670EF7220900F5CF34F00800F5CFE9
:1030800035F0FD0EDBCFE6FFFE0EDBCFE6FF04D012
:1030900035C0FAFF3450F96EFBDFE552E552E552D8
:1030A000E7CFD9FF120091D8000EE926010EEA22DF
:1030B0001200FE0EB3D8FD0EDBCFE6FFCEDFE552E9
:1030C0001200000E3426010E3522EBEF18F0E55207
:1030D000E7CFD9FF1200D9CFE6FFE1CFD9FF120029
:1030E000FD0EFE0E8FD8356A3450DE26000EDD222E
:1030F000120088D8356AFE0E34C0DBFF120076D885
:10310000D4EF18F0FC0EEECFDBFFFD0EEDCFDBFFB2
:103110001200E552E552F3CFE9FFF4CFEAFF1200C7
:10312000FA0E0EEF19F01050040DF3CFE9FFF4CFB3
:10313000EAFF780EE926040E1200FC0E46D8200E97
:10314000E926020E1200FC0E40D8400EE926020EBF
:103150001200FC0E3AD8600EE926020E1200D95079
:10316000FC0FE96EFF0EDA20EA6EEE52ED6A1200F5
:103170001BD8FD0EDBCFE6FFFDEF17F0EA6A000F6C
:10318000E96E010EEA221200FC0EDBCF34F0FD0ED8
:10319000DBCF35F012009FDF020EE126FD0E83DF4C
:1031A000EF50DE6EDD6A1200FC0EDBCFE6FF120090
:1031B00097DF356ADF34FE0B3536346E82DFD9CFC8
:1031C000E1FF85D72FD882EF18F0EA6ADB34FE0BD7
:1031D000EA36E96E120034C0F3FF35C0F4FF120086
:1031E00021D8EE50EFCFEAFFE96E1200FA0EDBCFE6
:1031F000E6FFFB0EDBCFE6FF1200FE0B3536346E2A
:1032000060DF65D7DBCF35F035C034F01200FE0B40
:10321000EA36E96E000EE926010E1200DBCFE6FF6A
:0A322000D4EF18F0FC0E53EF18F085
:06322A000501320EB56F34
:10323000B66B12000501906BB46B08D80501B16B39
:103240000401E76B0501C80EB36F1200E66AF3D8FC
:10325000E552010EE66EEFD8E5521200120080DA58
:10326000030EE126AA0EABDA550EA9DA1E0EA7DA76
:10327000120EA5DAFE0EDB50010BE76E010EE7CF52
:10328000DBFF0501B25102E0010EDB82A4DA010E80
:10329000DB50DF6E020EDB6A100EF36E020EDBCF28
:1032A000F4FFF350F45C0FE2FE0EDB5062DA020E24
:1032B000DB5098DA010EEFCFDBFFDB50DF268BDA35
:1032C000020EDB2AE9D7DF1C010FDF6EDFCFE6FF3E
:1032D000B0EC1EF0E552D9CFE1FF47D20501B15164
:1032E0000401E71112000401E751120039DA050167
:1032F000C80EB36FFE0EDBCFE7F437D20501B55130
:1033000012000501B25112002BDAFE0EDBCFB5F52B
:103310002CD226DAFE0EDBCFB2F50501B48525D21C
:103320001FDAE6520501B72BB7511E0805E2B65168
:1033300004E0B66BB76B01D0B72B29EC20F0000985
:103340002FE00501B76B30EC20F0DF6E0501B651C0
:10335000050A24E0010A1DE0070A16E0010A0FE051
:10336000030A08E0010A01E0B66BDF50AA0AE5E1B2
:10337000010E12D0DF50550A11E1020E0DD0DF50C0
:10338000160A0CE1030E08D0DF50020A07E1040E12
:1033900003D0DFCFB1F5050EB66FCFD7B66BCDD763
:1033A000E552E3D1BDDF0501B35106E10401E76B4E
:1033B0000501C80EB36F01D0B30748EC20F0000937
:1033C00039E0050190510A0A24E00B0A15E0120ABF
:1033D00003E0130A2DE1B86BB45103E0010E906FC6
:1033E0001200B55101E11200B551B85D02E2B82BEF
:1033F0001200030EB4131200050EB41508E0E66ABD
:103400002EDFE552FA0E0501B417020E0FD00A0E98
:103410000DD0060EB41509E0010EE66E20DFE55270
:10342000F90E0501B4170B0E01D0130E906F1200A8
:10343000B86B902B120094D9FE0EDBCFB9F5100EAD
:10344000E66EE66A200EE66E0501B95192D934C0E7
:10345000E6FF35C0E6FF76EC33F0F56E050EE15E73
:10346000F5500501B95102E1B48101D0B483BA6BC2
:103470007CD176D9100E0501BA5D0EE2B95179D929
:10348000BA51B0D9FE0EDBCFEFFF0501B95102E111
:10349000B48101D0B483BA2B68D162D9090EE12678
:1034A0000501BB3503E3BB6DDF6A02D0010EDF6EA1
:1034B000FD0EDBCF34F0FE0EDBCF35F00001800EC9
:1034C000351416E026682768FD0EDBCF2BF0FE0EC4
:1034D000DBCF2CF04CEC2AF0FD0E24C0DBFFFE0EFF
:1034E00025C0DBFF010EF36E070EF3CFDBFF02D02A
:1034F000070EDB6A010EDB6A050EF36E010EDBCFF1
:10350000F4FFF350F45C2EE2FD0EDBCF36F0FE0E3E
:10351000DBCF37F00A0E2B6E2C6A36C026F037C090
:1035200027F0C5EC29F022C036F023C037F02BD9A4
:1035300022C0EFFF5ED90A0E2B6E2C6AEECF26F06A
:10354000EDCF27F0C5EC29F026C0EEFF27C0EDFF38
:1035500050D9EE50ED1003E1010EDB2A03D0010E2D
:10356000DB2ACAD7400E0501BB5D25E0010EDB500A
:10357000BB5D21E3010EDB50BB5DE76E080EE7CFBC
:10358000DBFF070EDB5002E0080EDB06080EDBCF88
:1035900034F0000EE76E3418E8AE02D0343403D0B5
:1035A000E750D880345407E2DF5002E0200E01D00B
:1035B000300E2DD9E9D7070EDB5002E02D0E27D9AA
:1035C000010EDB50000806E2010EDB06DCD8EF50EE
:1035D000300FF5D7D9CFE1FFC8D0E3D8D8EC0DF044
:1035E000F3CFBAF51200B6EC0DF0F35007EF1CF074
:1035F000B6EC0DF0F3CFBBF5D8EC0DF0D7D84DDF1E
:10360000E552E5521200CDD8F3CFE6FF14DFE552C4
:103610001200A6D8E652FE0EDB50000812E2F0D8E7
:103620000800F550DF6EDF500CE0DFCFE6FF21DF52
:10363000E552FC0EDB2AFD0E01E3DB2AFE0EDB0663
:10364000EAD7E55292D08CD8E6520BC0F6FF0CC0F8
:10365000F7FF0800F550DF6E0B2A000E0C220BC09E
:10366000E6FF0CC0E6FFB0D8DF50356AE8500B2605
:1036700035500C22E55279D073D8E652DF6AFE0E3F
:10368000DB50DF5C0CE2DF50E76EBAD8E750F6267D
:10369000000EF7220800F55002E0DF2AF0D7B9C586
:1036A000E6FFC9DEE552100ED880DF54FE0BE8427B
:1036B0000501BA6FFC0EDBCFE6FFFD0EDBCFE6FFA8
:1036C00083D8E55252D04CD8FE0EDBCFE6FF86EC15
:1036D00030F0E5526BD8100EE66ECEDFE552E552C3
:1036E000E55243D0B3DD0501B96B8CC4E6FFEBDFD7
:1036F000E552120056D8D8EC0DF0F350E66EE3DF39
:10370000E5521200F40E0B26FF0E0C2223EF1BF0E5
:1037100048D8F80E0B26FF0E0C2243D80BC0E6FF4C
:103720000CC0E6FFBBC3E6FFA7DFE552E552E5525A
:103730000301BB51346E356A34500B2635500C22D0
:103740001200220EE66EA2C3E6FF910EE66E050E93
:10375000E66E71EC31F0E552E552E552E5521200A9
:10376000D9CFE6FFE1CFD9FF1200E552E7CFD9FF6D
:103770001200100DF3CF34F0F4CF35F0910E342653
:10378000050E35221200D950020F346EDACF35F013
:10379000010EDB500F013424E96E000EDA20EA6ED0
:1037A0001200B6EC0DF0F3CFB9F51200F3CF34F000
:1037B000F4CF35F0F3CFE6FFF4CFE6FF1200E66E6C
:1037C000B0EC1EF0E5521200DFCFE6FF22DFE5523B
:1037D000E552E5521200010EDBCFE6FFB0EC1EF021
:1037E000E55212000F013424E96E000E3520EA6E16
:1037F0001200D950FD0FE96EFF0EDA20EA6E1200BA
:10380000FC0EDBCFF6FFFD0EDBCFF7FF1200E66EFE
:0638100030DEE55212005B
:0A381600106A0301A26B31EC25F0EB
:10382000D0EF1DF039DAFE0EDB50180D5EDA000E17
:103830003426040E35225EDA34D22EDA020EE12668
:10384000FE0EDB50040D51DAC70E3426000E352271
:1038500034C0DEFF35C0DDFFDECFE9FFDDCFEAFF9C
:103860004EDAEF6ADECFE9FFDDCFEAFF030EE9268D
:10387000000EEA22EF68D9CFE1FF13D20DDA04017E
:103880009251905D9351915903E2090E45DA0ED0A1
:1038900092C4E9FF93C4EAFFFD0EDBCFEEFFFE0EFC
:1038A000DBCFEDFF020E9227000E9323FAD1040125
:1038B00092518E5D93518F590EE2020E925F000E6F
:1038C000935B92C4E9FF93C4EAFFEECF34F0EFCFED
:1038D00035F07AEF1EF00A0E1FDAF36AF46A12006E
:1038E0000E5002E10301A36B76EF1CF00E5001E0D5
:1038F0001200F29C188CF28C1200CED9020EE12636
:1039000015DA03E1F36AF46A20D0CFD9FE0EDB505A
:10391000E824396A3A6A3B6AE850F6D934C0F6FFBF
:1039200035C0F7FF0900F5CFDEFF0A00F5CFDDFF58
:10393000D9CFE9FFDACFEAFFDB51EE26DC51ED22E9
:10394000DECF34F0DDCF35F0D5D9D9CFE1FFA9D125
:10395000EDD901E1000CDBC036F0DCC037F0386A8D
:10396000396A020E3626000E37223822392236C036
:10397000F6FF37C0F7FF0900F5CF34F00800F5CFA8
:1039800035F0050E345E000E355A34501200CED993
:1039900003E1F36AF46A120088D93E6A3F6ADBC029
:1039A000F6FFDCC0F7FF0900F5CF38F00800F5CFCF
:1039B00039F03A6A3B6A3850A7D97AEF1EF06CD9D1
:1039C0000001BE2BFE0EDB5004018C5D02E0F7EC23
:1039D00013F0D0D877D943EC30F0E55286D9160EE3
:1039E000D880F354000EF45402E3FE0EDB6AFE0EA0
:1039F000DBCF8CF4A6EC30F0D3D853D14DD962D9BB
:103A0000DEDFE552FD0EDB5004E00401010E8D6F98
:103A100002D004018D6B45D13FD9050EF36EFE0E29
:103A2000DBCFF4FFF350F45C03E3170E75D902D03B
:103A30004DD902E1000E36D0030E0001B85D07E15A
:103A4000E1EC12F00501046B056B066B076B3AD9CC
:103A500054DFE5524AD96ED934C0EEFF35C0EDFFD0
:103A60000E5008E02FD9E9DEE552FE0EDB5037D9C3
:103A7000070E0ED056D826D9E0DEE55214D81050E5
:103A80002ED9EF50E66EFE0EDB5029D9E552E750F5
:103A9000EF6E18D9FBEC25F0E552EBEC14F072EC6C
:103AA0001BF0010EFED0F8D8E6521050EBD827D903
:103AB000EFCFDFFF1028180DF3CF90F4F4CF91F47F
:103AC000000E04019027040E9123020E905F000E59
:103AD000915B1050180DF3CF8EF4F4CF8FF4000EDD
:103AE0008E27040E8F23DF50020D8E51F324926F28
:103AF0008F51F420936FE552D4D0CED81BD9FFD884
:103B0000EF50CFD0C9D8E65204018E51925D346E89
:103B100093518F553450DF6EDF90DF42DF50E55216
:103B2000C0D0F0DFE66E1050ADD8E9D8E552E750CE
:103B3000EF6E1200B1D8CAD8010A0DE0010A0BE0FD
:103B4000060A02E1D1EC14F0010EE66EBBD8F4ECEB
:103B500025F0E552E552EED8EE6AED6AA2D09CD887
:103B6000B1D8E8DFE552EBEC14F09BD031EC25F056
:103B7000CEEF2DF0FBDFBDEF1DF08ED8E652DF6AF1
:103B8000050EDF5C06E2DFCFE6FFD4DFE552DF2A79
:103B9000F7D7EBEC14F0CEEC2DF0A8DEE55281D097
:103BA0007BD8050EE126C2D80AE0050EE66EA5DE3A
:103BB000E552DE52F3CFDEFFF4CFDDFFDD52040E1F
:103BC000DF6EDFCF34F0343454E2B0D808E1DFCF19
:103BD000E9FFEA6AE9BEEA68A4D8EF6A37D0DFCF26
:103BE000E6FF8BDEE552030EF3CFDBFF040EF4CFCE
:103BF000DBFF030EDBCF34F0040EDBCF35F0010E1C
:103C0000DBCF36F0020EDBCF37F03650345C375066
:103C1000355809E2DFCFE9FFEA6AE9BEEA6881D8F0
:103C2000010EEF6E07D0DFCFE9FFEA6AE9BEEA686E
:103C300078D8EF6A030EDBCF26F0040EDBCF27F037
:103C4000DE5226C0DEFF27C0DDFFDD52DFCFE9FFF9
:103C5000EA6AE9BEEA68D890E936EA36D890E936E9
:103C6000EA36C70EE926000EEA22EE6AED6ADF06A2
:103C7000A8D70001030EB86F016A0401E46BD9CF25
:103C8000E1FF0FD0040DF3CFE9FFF4CFEAFFC70E39
:103C9000E926000EEA221200D9CFE6FFE1CFD9FFD4
:103CA0001200E552E7CFD9FF1200DBC034F0DCC0D0
:103CB00035F0366A376A040E3426000E3522362275
:103CC00037221200FE0EDBCFE6FF1200FE0EDB50A5
:103CD000EA6AC20FE96E000EEA22EF501200EA6AA9
:103CE0009D0FE96E030EEA221200F3CF34F0F4CFF9
:103CF00035F0120034C0F3FF35C0F4FF1200020E9D
:103D0000E926000EEA2212003426395035223A50B4
:103D100036223B5037221200E66E57EC15F0E55282
:103D20001200C20EE926000EEA2212000001DB5149
:0C3D3000DC111200FE0EDB5042EF1EF012
:043D3C0003013F6BD5
:103D4000066A036A0ED98FEC32F055EF32F00501A6
:103D5000636B0501646B0501616B0501626B120009
:103D6000BCD9E65263C5DFFF180EDF5C02E2DF2A32
:103D700001D0DF6A05016451DF5C0AE0050163518F
:103D8000EA6A740FE96E050EC4D9DFCF63F5A38824
:103D9000E552A8D1DCDF93EC32F0A39812009DD954
:103DA000E652DF6AFC0EDB50DF5C25E20750085C60
:103DB00022E0FC0EDB50DF5C17E20850EA6A010FDC
:103DC000E96E030EEA22EF50E66EDF50E76EFD0E5D
:103DD000DBCFE9FFFE0EDBCFEAFFE750E926000E5E
:103DE000EA22E552E750EF6E082A3E0E085C01E336
:103DF000086ADF2AD7D7E55275D16FD90750EA6A2A
:103E0000010FE96E030E85D9072A3E0E075C01E318
:103E1000076A68D162D9025001E1066A4B0E026E50
:103E20000650040A2DE0070A19E0010A12E0030A0D
:103E300008E0010A0AE1FE0EDB50770A06E1010EF6
:103E40001DD0FE0EDB50990A02E0066A39D0020E40
:103E500015D0FE0EDB50056E030E10D0FE0EDB50AB
:103E6000046E096A0550330A02E0010A06D0F29C8A
:103E7000189E036AF28C0850076E040E066E20D05E
:103E8000FE0EDBCFE6FFB9DFE55204060450000862
:103E900004E2FE0EDB50092613D00550330A02E07F
:103EA000010AD3D7FE0EDB50095CCFE1F29C010E74
:103EB000036E188E0401DA2B000EDB23F28CC5D7BB
:103EC00011D10BD9025002E10401DC6B4B0E026EE2
:103ED0000401DC51040A30E0070A21E0010A10E085
:103EE000030A08E0010A3BE1FE0EDB50770A37E1E6
:103EF000010E20D0FE0EDB50990A31E1020E1AD0DD
:103F0000FE0EDB500301406F330A06E1770E06D93F
:103F1000990E04D9330E02D90401030E0BD0FE0E04
:103F2000DBCF41F30301426B4051330A01E1EBD88F
:103F30000401040EDC6F14D003014051320A03E087
:103F4000010A09E107D0422B42510D0804E2415118
:103F5000030801E2D8D80301410702E10401DC6B48
:103F6000C1D01E6A1F6A086A076A1C6A1D6A1200AD
:103F7000B4D8E6521E50DF6E450EDF5C02E2DF2A47
:103F800001D0DF6A1F50DF5C08E01E50EA6A430F71
:103F9000E96E030EBED8DF501E6EE552A3D09DD849
:103FA000E652FD0EDBCFF6FFFE0EDBCFF7FF08007B
:103FB000F550DF6EDF500AE0DFCFE6FFD9DFE552D4
:103FC000FD0EDB2AFE0EEDE3DB2AEBD7E5528AD0AD
:103FD00084D8FE0EDB5009080AE288D82750300F3B
:103FE000E66EC6DFE55282D8FE0E23C0DBFFFE0E72
:103FF000DB50300FE66EBCDFE55274D0CE0EE66EBD
:104000006C0E7CD8EFC2E6FFE3DFE552D90EE66E18
:104010006C0E74D8C40EE66E6C0E70D8B2EF32F02F
:104020005CD8E6521C501D5C12E01D50EA6A890FF4
:10403000E96E030EEA22EFCFDFFF1D2A140E1D5C8E
:1040400001E31D6ADFCFE6FF3CDFE552EBD7E55227
:1040500049D0050161510501625D01E1000C010CCF
:104060003CD8E652F6DF000902E1000E0FD0050150
:104070006251EA6A650FE96E050EEA22EFCFDFFFB3
:10408000622B0F0E625D01E3626BDF50E5522AD0B6
:10409000050164510501635D01E0000C010C1DD8B0
:1040A00003010051020A02E12EEC19F0FE0EDBCFF3
:1040B00000F303010051020A02E11AEC19F012D0D8
:1040C00003010051020A02E1D2EC19F0030101518F
:1040D000020A01E01200D2EF19F0D9CFE6FFE1CFDA
:1040E000D9FF1200E552E7CFD9FF12000A0E346E55
:1040F0002C6EFE0EDBCF27F071EF36F0E66E4FDF51
:10410000E552E5521200FE0EDBCFE6FF83DEE552FC
:104110001200EA22FE0EDBCFEFFF1200E66E7ADE1F
:04412000E552120052
:0C4124000401010EE46F12000401E46BC2
:104130001200D9CFE6FFE1CFD9FF150EE12603012A
:10414000B751470A01E1E0D00E0A01E1B2D0080AF6
:1041500001E1ACD07E0A01E1A5D07F0A01E19FD048
:104160007E0A01E199D0030A01E193D0010A01E13D
:104170008DD07E0A01E187D0740A01E17ED0030A66
:1041800001E176D0010A57E0070A51E0010A4BE04D
:10419000240A2FE0120A20E0070A0EE0020A09E0D2
:1041A000030A05E0020A01E06AD1BCDF03D076EC25
:1041B0001CF0BCDF0C0EA4D06DD9E0EC0DF079D969
:1041C000DCEC0DF0F3CF38F0F4CF39F08DD928ECDA
:1041D00033F0F56E060E09D05DD975D9DCEC0DF023
:1041E00068D976EC33F0F56E050EE15EF550030EFE
:1041F00087D0B6EC0DF0020EF3CFDBFFE0EC0DF054
:10420000F3CFDEFFF4CFDDFF020EDBCFE6FFD9EC0C
:1042100028F0E552F4CF35F0DECFE9FFDDCFEAFF3D
:10422000F3CFEEFF6AD04FD94FEC20F024D04BD91A
:104230006BEC32F020D0B6EC0DF0050EF3CFDBFFC7
:1042400029EC20F0000908E030EC20F0E66ED950AF
:10425000030F4FD944D904D0030EDB68040EDB688A
:1042600037D9030EDBCFEEFF040EDBCFEDFF47D0D7
:104270002AD9B0EC1EF0E55242D048EC20F0E66EB0
:1042800027D92DD93CD0EDEC1AF039D0F3EC1AF047
:104290000BD0F8EC1AF033D082EC1BF0F5D088ECA0
:1042A0001BF0F2D003EC1BF0090E2AD07AEC1BF0C5
:1042B00026D0E0EC0DF0060EF3CFDBFF070EF4CFB7
:1042C000DBFFB6EC0DF0F350E66E43EC30F0E55258
:1042D000000ED880F354000EF45402E3000E01D017
:1042E000010E346E356A34BE3568060EDBCFE9FF49
:1042F000070EDBCFEAFF34C0EEFF35C0EDFF060E40
:104300000B5E000E0C5AC0D00D0EB8C3DBFFDB50A5
:104310000E0805E20E0EF36E0D0EF3CFDBFFD95043
:10432000080FE7D8B90EEE6E030EED6ED9500A0FE6
:10433000E0D89A0EEE6E040EED6E0A0EDBCFE9FFAA
:104340000B0EDBCFEAFF0D0EDBCFEFFF0A0EDB2AF1
:104350000B0E01E3DB2A140EDB6A0D0EDB50F36E4D
:10436000140EDBCFF4FFF350F45C68E29BD80C0E24
:10437000EFCFDBFF080EDB2A090E01E3DB2A92D820
:10438000EF50E66E9CD8ABD89AD8EE50ED6EEF6A3F
:10439000080EDB2A090E01E3DB2A84D8EF50346EC5
:1043A000356A8DD83450EE123550ED12080EDB2AE6
:1043B000090E01E3DB2A0E0EDBCFE6FF0F0EDBCF8B
:1043C000E6FF0C0EDBCFE6FFF2EC15F0E552E5520E
:1043D000E552F3CF34F0F4CF35F0366A376A35AEB4
:1043E00002D036683768100E34C0DBFF110E35C0BE
:1043F000DBFF120E36C0DBFF130E37C0DBFF040EEF
:10440000E66EE66AD950100FE66E000EDA20E66E10
:104410000A0EDBCFE6FF0B0EDBCFE6FF28EC33F016
:10442000F56E060EE15EF550D9500A0F62D8040E03
:10443000EE26000EED22140EDB2A8FD70D0EDB5078
:10444000040DF328E66EA2C3E6FF9A0EE66E040E94
:10445000E66E71EC31F0E552E552E552E5520D0E93
:10446000DB50030DF350030F346E356A0E0E345ECD
:10447000000E355A34500B2635500C2205D0410E13
:10448000E66E57EC15F0E552D9CFE1FFE552E7CFE4
:10449000D9FF1200E8EC0DF0F3CF34F0F4CF35F093
:1044A00074EF22F0080EDBCFE9FF090EDBCFEAFF45
:1044B0001200F3CF36F0F4CF37F074EF22F0D9507A
:1044C0000E0F79EF22F0D8EC0DF0F350E66E1200EB
:1044D000E0EC0DF0F3CFE9FFF4CFEAFF1200E55274
:1044E000E750EE6EED6A1200F3CFE6FFF4CFE6FF81
:0A44F0001200E96EDACFEAFF1200B5
:0644FA005ED9030A01E196
:10450000C7D0060A01E1C0D0150A01E1B8D0020AFD
:1045100001E1A9D0160A01E1A3D0170A01E196D062
:104520001A0A01E190D0020A01E18AD0010A01E1F0
:1045300084D02E0A01E17ED0260A01E178D0020A59
:1045400071E0110A6AE0190A63E00F0A5CE0440AAC
:1045500055E0040A46E0030A38E07E0A31E0060A24
:104560002CE0010A27E0030A22E0780A1DE0030A92
:1045700018E07A0A13E07D0A0BE0020A06E0410A1D
:1045800001E08BD0020EF36E73D00201EF5182D0A6
:104590000201E251040B01E17DD02ED00201D25183
:1045A00079D00201B05176D00201B15173D002012D
:1045B000C45170D00401E3516DD00201C6516AD0DC
:1045C0000201C451040B66E017D00201E251040B52
:1045D00004E0E251800B5EE00FD0D2510DE0000EFE
:1045E00059D00201E251040B04E0E251400B52E0C9
:1045F00003D0D151400B4EE0010E4CD0DFC4F3FF8D
:10460000E0C4F4FF57D0F0C7F3FFF1C7F4FF52D076
:10461000F2C7F3FFF3C7F4FF4DD0000E346E040E63
:10462000356E44D03F0EF36E030EF46E43D03EEC75
:1046300030F040D073EC19F02DD06EEC19F02AD088
:104640007EEC19F027D081EC19F024D00E5025E132
:104650001050EA6A9D0FE96E030EEA22EF501AD05D
:1046600004018C5117D0030E0001B85D03E1F36A19
:10467000F46A20D004C5F3FF05C5F4FF1BD000C5C4
:10468000F3FF01C5F4FF16D00E5007E1105002D021
:104690000001B851346E356A09D045EC15F0FE0EB4
:1046A000DB50346E356AE850000E351234C0F3FF2B
:1046B00035C0F4FFE552E7CFD9FF12007DD8090AD3
:1046C0006CE0020A66E02F0A60E0200A53E0060A66
:1046D0004EE0010A4CE0100A42E01B0A39E00F0AE2
:1046E00030E03D0A27E07D0A22E0790A1CE0020A58
:1046F00016E07A0A0EE0030A06E0780A53E158D879
:1047000090EC26F04DD0FC0EDBCFB0F20201C48756
:104710004BD0FC0EDBCFB1F20201C48945D0FC0EB8
:10472000DBCFC6F241D0FC0EDBCFC4F23DD04BD87C
:10473000FD0E03D048D8F346FB0EC415F310C46F2A
:1047400033D0FC0EDBCFF0F7FD0EDBCFF1F72CD032
:10475000FC0EDBCFF2F7FD0EDBCFF3F725D00E50CA
:1047600021E126D81050E66ED8EC25F00CD038ECBC
:1047700015F01AD00E5002E0000E01D0010EE66EC8
:1047800017D8FEEC1CF0E5520BD012D876EC19F0DD
:1047900007D00ED884EC19F003D00AD889EC19F0B0
:1047A000E55202D047EC15F0E552E7CFD9FF1200F1
:1047B000FC0EDBCFE6FF1200D9CFE6FFE1CFD9FF39
:1047C000FE0EDB501200FC0EDB500201010BF36EFB
:0447D000F34612009A
:0C47D4000301B8513A0A06E0040A04E0B0
:1047E000050A02E0060A06E1DCEC0DF005D934BE4C
:1047F00035681BD1B6EF0DF00301B8513A0A06E057
:10480000040A04E0050A02E0060A03E1DCEC0DF00C
:10481000D8D0B6EF0DF00301BB513A0A06E0040A06
:1048200004E0050A02E0060A06E1E0EC0DF0E4D837
:1048300034BE3568FAD0D8EF0DF00301BB513A0A07
:1048400006E0040A04E0050A02E0060A03E1E0ECDF
:104850000DF0B7D0D8EF0DF00301BA513A0A06E0D7
:10486000040A04E0050A02E0060A06E126EC0EF05E
:10487000C3D834BE3568D9D0BEEF0DF00301BA51AC
:104880003A0A06E0040A04E0050A02E0060A03E127
:1048900026EC0EF096D0BEEF0DF0D4D8020EB1D8B3
:1048A000DBDFF350BCD8B5D0B6DFF3CFFEF3F4CFE7
:1048B000FFF390DFBFD802E0DAEC05F01200BDDFB5
:1048C000F3CFFEF3F4CFFFF397DFB4D802E0DAECD6
:1048D00005F01200B7D8030E94D8BEDF020EF3CF56
:1048E000DBFF070E0301B615070A29E0010A23E0E2
:1048F000030A1EE0010A19E0070A11E0010A0AE0B2
:10490000030A05E0010A23E158D8EF2620D055D844
:10491000EF5E1DD052D8EF02F3CFEFFF18D058D87A
:10492000ABEC29F027C0EFFF12D047D8EF160FD01D
:1049300044D8EF120CD0020EDB1C71D808D048D836
:10494000ABEC29F0020EDBBE236C23C0EFFF61D07D
:1049500079D8040E56D892DF020EF3CFDBFF030E98
:10496000F4CFDBFF070E0301B615030A11E0010ABD
:104970000AE0030A05E0010A10E11FD8EF260DD076
:104980001CD8EF5E0AD019D8EF02F3CFEFFF05D0A5
:104990001FD871EC36F027C0EFFF3BD05DDF1FD092
:1049A0006DDF1DD0BEEC0DF0F350E66E66EC0BF043
:1049B0004ED8E552E750EF6E12004ED8020EDB5093
:1049C000120045D8EF50356AF36E35C0F4FF12007F
:1049D00043D8EFCF27F0020EDBCF2CF01200F3CF3D
:1049E00034F0F4CF35F0F3CFE6FFF4CFE6FF1AEC66
:1049F0000EF0E552E55212002AD8EFCF34F0356AB6
:104A00001200E12666EC0BF0F3CFDEFFF4CFDDFF02
:104A10001200D9CFE1FFE552E7CFD9FF1200E66ED1
:104A20001BD8E552E750EF6E120034C0F3FF35C0DB
:104A3000F4FF1200F3CFFCF3F4CFFDF321EC06F00A
:104A400000091200D9CFE6FFE1CFD9FF1200F3CF62
:104A5000E9FFF4CFEAFF1200DECFE9FFDDCFEAFF86
:024A6000120042
:0E4A6200FAD8E652DF6ADF5006080EE3DF5096
:104A7000EA6AEF0FE96E000EEA22DFCFEFFFDF50A8
:104A8000DED8DFCFEFFFDF2AEFD7E552EAD0E4D858
:104A9000F6D8050EE66E00D9E4D0DED8020EE12687
:104AA000EED8FE0EF2D8EFCFDFFF010EFBC0DBFF2A
:104AB000DB50050809E0010EE8D8EF50D880DF543C
:104AC00003E2010E04D9F4D7010EFBD0C5D8050EC0
:104AD000E126D5D8FE0EDB50C8D8EECFDFFF010EA1
:104AE000EECFDBFF020EEECFDBFF030EEECFDBFFE0
:104AF000040EFCC0DBFFDB5006081FE0D9CFE9FF46
:104B0000DACFEAFFEECF34F0EECF35F0EECF36F06D
:104B1000EFCF37F0040EDB50A8D8EE50345CEE50E7
:104B20003558EE503658EE50375807E2040EDB5039
:104B300086D8040EEFCFDBFFDED7040EC2D08CD8B0
:104B4000020EE126FE0E81D8EFCFDFFFFE0EBFD8AA
:104B50007CD8DFCFEFFFDF5072D8010EDBCFEFFF45
:104B6000FE0E73D8FE0EDBCFEFFFDB5068D8FE0ED3
:104B7000DBCFEFFFD9CFE1FF74D06ED8E652FD0E48
:104B800064D8EFCFDFFFFD0E60D8FE0EDBCFEFFF66
:104B90005CD8DFCFEFFFFE0EDB5051D8FD0EDBCF30
:104BA000EFFFDF504CD8FE0EDBCFEFFFE55259D0C0
:104BB00053D8E652FE0E69D8EFCFDFFFFE0E65D860
:104BC000FD0EDBCFEFFFDB50DF5C0CE0FE0EDB50B9
:104BD000105C03E176EC1CF005D065D8EF500208BC
:104BE00001E169D8E5523DD037D85DD8FD0EDBCF65
:104BF000EFFF45D836D030D856D8020EEF6E5BD8CE
:104C000030D02AD8105031D8FB0EDBCFEEFFFC0E8F
:104C1000DBCFEEFFFD0EDBCFEEFFFE0EDBCFEEFFB8
:104C20001050EA6AC20FE96E000EEA22030EEF6E20
:104C30001050E66E4BDFE55276EC1CF012D0EA6ABB
:104C4000F60FE96E000EEA221200DB50EA6AEF0F5F
:104C5000E96E000EEA221200D9CFE6FFE1CFD9FFBC
:104C60001200E552E7CFD9FF1200040DF3CFE9FFA0
:104C7000F4CFEAFF180EE926050EEA221200FE0E16
:104C8000DBCFE6FF5CDFE5521200DB50EA6A9D0FE6
:104C9000E96E030EEA221200FE0EDBCFE6FF6DDFA7
:104CA000E552E5521200FE0EDB50EA6AC20FE96ED1
:104CB000000EEA221200FE0EDBCFE6FFEEDEE5522A
:104CC0001200DBCFE6FFE8DFD9CFE1FFCAD7DB5028
:0A4CD000B6DF010EEFCFDBFF12008C
:064CDA00FFD8FE0EDBCF47
:104CE000E6FF95D8E552DF6E00D9EFCF34F0DF5004
:104CF000345C14E0DF500FE0FE0EDB50030DF3CF09
:104D0000E9FFF4CFEAFF800EE926020EEA22EE2A3E
:104D1000000EEE22EE22E9D8DFCFEFFFE552D9D028
:104D200003D9FE0EDB50100802E2100E02D0FE0E78
:104D3000DB500401E36FE81C0F0BC16EE351000868
:104D400005E2860EC06E010EC26E01D0C26AC1D0ED
:104D5000EBD8030EE126FE0EDB50EA6AD60FE96EB1
:104D6000020EEA22EFCFDFFFFF0EDF5C08E17F0ECD
:104D7000F36E010EF3CFDBFF020EDB6A0DD0DF50C6
:104D8000346E356A7F0E345E000E355A010E34C023
:104D9000DBFF020E35C0DBFFFE0EDB50010A06E032
:104DA000030A04E0050A02E00F0A06E1B6D8346CF3
:104DB000351E000E352201D0B0D834C0F3FF35C007
:104DC000F4FFD9CFE1FF85D07BD88AD81150EF12FC
:104DD000D9CFE1FF7ED074D8111C346E81D8E85051
:104DE000EF16D9CFE1FF75D06BD87AD8EF501114F8
:104DF00002E0010E01D0000ED9CFE1FF6AD0A4D8A5
:104E0000E3DFE55266D0A0D8E6DFE55262D08CD869
:104E1000020EE1260401E351F36EFE0EDBCFF4FF38
:104E2000F350F45C15E2FE0EEA6ADB34FE0BEA3660
:104E3000E96E910EE926000EEA22EECF34F0EFCFB4
:104E400035F0FF0E345C010E355811E2000E12D021
:104E500029D8460FF66E6B0EF7220800F550346E17
:104E6000356AE85066D83CD8EF50111402E0010EC4
:104E700001D0000ED9CFE1FF2CD062D8FD0EDB505F
:104E800004E0DFCFE6FFA0DF03D0DFCFE6FFA3DF44
:104E9000E552E5521ED054D8DFCFE6FFA5DFE5523C
:104EA000E55217D0FE0EDB50F76A760FF66E6B0EEA
:104EB000F7220800F550116EFE0EDB50F76A120063
:104EC00033D8020EE126FE0EDB50346E356A99EFC0
:104ED00027F0E552E7CFD9FF120026D8E65212009C
:104EE000DECFE9FFDDCFEAFF1200FE0EDB50EA6AFB
:104EF000810FE96E000EEA221200560FF66E6B0E5D
:104F0000F7220800F550E66E1200660FF66E6B0E83
:104F1000F7220800F550DF6E1200010EDBCF34F0EF
:104F2000020EDBCF35F01200D9CFE6FFE1CFD9FF7B
:104F300012000F0E351234C0DEFF35C0DDFF120047
:104F4000CCDFB0DF85EF27F0EFDFACDF7DEF27F0C0
:104F500005D9400EE66EE66AEBD836BE3768C00E5D
:104F6000341634C0E6FF35C0E6FF36C0E6FFE9D8A8
:104F700053EC33F0F56E070EEBD0F0D8E2D8D8D86A
:104F80003450E66EFD0EDBCF3AF0FE0EDBCF3BF089
:104F90003C6A3D6A3BC038F0396A3B50E66EFD0E14
:104FA000DBCF41F0FE0EDBCF42F0436A446A100EC5
:104FB0001F0B41C03EF042C03FF043C040F006E04E
:104FC000D89040323F323E32E806FAE13E50E66E7B
:104FD0004CD8F56E050EBCD0C1D8020EE1260301F7
:104FE000B951F36EB9C33AF03B6A3C6AB8C33EF0BC
:104FF0003D6A3F6A3A503D10376E3B503E10386E66
:105000003C503F10396EB751406E416A426A37508A
:105010004010346E38504110356E39504210366EA3
:1050200034C0DEFF35C0DDFFDECFE6FFDDCFE6FFBB
:10503000BB51E66EE66ABC0EE66E030EE66E97ECBA
:105040002BF0F56E060EE15EF5500301BB51346E98
:10505000356A34500B2635500C220001BE2BD9CFB7
:10506000E1FFE552E7CFD9FF1200D9CFE6FFE1CF4C
:10507000D9FF050EE126FA0EDBCF26F0FB0EDBCFC3
:1050800027F0DE5226C0DEFF27C0DDFFDD52030E13
:10509000DB6A040EDB6A1AB00FD0030EDB2A040EA3
:1050A00001E3DB2AD950030FE96EDACFEAFFEE50B5
:1050B000ED1001E101D0EFD7F29EFE0EDB50F86E4D
:1050C000FD0EDB50F76EFC0EDB50C00BF66EA688B3
:1050D00023D8F28EF29EA698DF6A400EDF5C14E2BF
:1050E000010EDBCFE9FFDB2A020EDBCFEAFF01E393
:1050F000DB2AEF50F56E0C00070EDF14070801E104
:105100000BD8F62ADF2AE9D7F28E00D0D9CFE1FFFB
:10511000E552E7CFD9FF1200A68EA69CA684550EB5
:10512000A76EAA0EA76EA6820000A69400D0120059
:10513000FD0EDBCF34F0FE0EDBCF35F0366A376A7A
:105140001200FB0EDBCFE6FFFC0EDBCFE6FF12000A
:10515000E15EF550E552E7CFD9FF1200D9CFE6FF67
:06516000E1CFD9FF1200AF
:0A516600CF6ACE6A1200CD88CD8A10
:10517000CD96CD92CD8E9F909E90F5DF9D90CD8067
:105180001200CFD807E0010A09E19384F092F09E63
:10519000F08804D09386F094F192F08ABED0C1D802
:1051A00004E0010A03E1F18801D0F186B6D0B6EF40
:1051B00028F0D9CFE6FFF36AF46AAFD0D9CFE6FF83
:1051C000E1CFD9FF040EE1260401E6510AE0000117
:1051D000FF51EA6A000FE96E020EEA22EF502D0835
:1051E00006E00401010EE66FFE0EDBCFFFF0FE0EBF
:1051F000DB500001FF5D01E085D09BD8EFCFDFFFE2
:10520000DF2A83D8EF50050A73E0010A42E0070A5B
:105210003AE0010A25E079D8010EEF6E98D803EC48
:1052200027F0E55294D8B7EC0FF0E552E76E010E87
:10523000E7CFDBFFDBCFE6FFB2DFE552010EDBCFCE
:10524000E6FF9FDFE552010EE66E7BD80D0EE66E9F
:105250007FEC36F0E552E66A74D857D8020E45D096
:10526000240EDF5C4CE373D830EC11F0E552F3CF41
:1052700034F0F4CF35F00001F31C01E1351C33E0CC
:10528000FE0EE66E04D0240EDF5C39E3E668E668C5
:1052900024D05C0E346E356AFDC026F0FEC027F0C7
:1052A0002B6E35C02CF019EC36F0020E26C0DBFF59
:1052B000030E27C0DBFF020EDBCF34F0030EDBCF83
:1052C00035F0010E0F0B05E0D89035323432E80688
:1052D000FBE134C0E6FF35C0E6FF39D8C7EC11F07A
:1052E000E552E552E55211D8050EEF6EDF6A07D0A0
:1052F0000A0EDF5C04E309D8EF6A0401E66B19D8F3
:10530000DFCFEFFFD9CFE1FF08D0FE0EDB50EA6A16
:10531000810FE96E000EEA221200E552E7CFD9FFB5
:105320001200D9CFE6FFE1CFD9FFFE0EDB50010A14
:105330001200FE0EDB50EA6A100FE96E020EEA223E
:10534000120005D83DEC27F0E552E5521200FE0EA2
:06535000DBCFE6FF1200B6
:0A5356002E6A2CAEB1EF29F02C6C8A
:105360002E1E27AEB6EF29F0276C2E1E71EC36F0FC
:1053700027BEC0EF29F02EAE000C276C236C000C6A
:105380002EBEBDEF29F02F88FF0C2E6A2CAECEEF7B
:1053900029F02B6C2C1EE86A2C222E1E27AED6EF8D
:1053A00029F0266C271EE86A27222E1E19EC36F0FB
:1053B00027BEE6EF29F02EAE000C266C271EE86A09
:1053C0002722226C231EE86A2322000C2EBEDDEF6A
:1053D00029F02F88FF0C2E6A2CAEF6EF29F02A6CEC
:1053E0002B1E2C1EE86A2B222C222E1E27AE00EF2D
:1053F0002AF0256C261E271EE86A262227222E1E4A
:10540000E1EC35F027BE13EF2AF02EAE000C256C30
:10541000261E271EE86A26222722216C221E231E12
:1054200022222322000C2EBE07EF2AF02F88FF0C29
:105430002E6AE86A2CAE25EF2AF0296C2A1E2B1E54
:105440002C1E2A222B222C222E1E27AE30EF2AF0D1
:10545000246C251E261E271E2522262227222E1ECC
:105460005EEC35F027BE47EF2AF02EAE000C246C20
:10547000251E261E271EE86A252226222722206CAA
:10548000211E221E231E212222222322000C2EBE98
:1054900037EF2AF02F88FF0C27C033F026C032F0F8
:1054A00026502B02F4CF25F0F3CF24F027502C0206
:1054B000F4CF27F0F3CF26F02B02F3502526F4503B
:1054C0002622E86A272232502C02F3502526F45077
:1054D0002622E86A27222CAE72EF2AF03250265E8E
:1054E0003350275A33AE000C2B50265E2C50275ACF
:1054F000000C26C032F026502B02F4CF25F0F3CF5B
:1055000024F027502C02F4CF27F0F3CF26F02B0203
:10551000F3502526F4502622E86A272232502C0226
:0E552000F3502526F4502622E86A2722000CBC
:02552E00D6D8CD
:10553000FA0EDB50060A47E0030A3FE0010A37E0B3
:10554000030A24E0040A1AE0010A10E0030A08E052
:10555000010A44E19AD83450EE263550ED223ED06F
:1055600094D83450EE5E3550ED5A38D0C7D879EC27
:105570002AF024C0EEFF25C0EDFF30D0BFD8C5EC27
:1055800029F026C0EEFF27C0EDFF28D0B7D835C0E0
:10559000F5FFC5EC29F0F5AE05D0221E231E222A08
:1055A000000E232222C0EEFF23C0EDFF17D06DD8DE
:1055B0003450EE163550ED1611D067D83450EE1237
:1055C0003550ED120BD0FB0EDB1C346EFC0EDB1CD9
:1055D000356E8DD834C0EEFF35C0EDFF84D07ED857
:1055E000E652DF6A0301B751DF5C11E2DFCFE6FF6D
:1055F00000EC2EF0E552E66EDF50EA6A310FE96EFC
:10560000050EEA22E552E750EF6EDF2AEBD7B7C36B
:10561000E6FF57D8E55267D061D8030EE126DF6A6E
:105620000301B751DF5C29E2DFCFE6FF30EC11F078
:10563000E552DE52F3CFDEFFF4CFDDFFDD522DD891
:10564000010EDBCFEFFF020EDBCF35F035C034F0BB
:10565000356A23D8EE5234C0EFFFDFCFE6FFEEEC21
:105660000FF0E552E66E19D8020EE926000EEA2286
:10567000E552E750EF6EDF2AD3D7030EB703F3509E
:10568000E66E1FD8D9CFE1FF2ED0FB0EDBCF34F072
:10569000FC0EDBCF35F077EF2BF0DF50030DF3CFAF
:1056A000E9FFF4CFEAFF310EE926050EEA221200E7
:1056B00034C02BF035C02CF0EECF26F0EDCF27F024
:1056C0001200A2C3E6FF310EE66E050EE66E71EC27
:1056D00031F0E552E552E552E5521200D9CFE6FF2E
:1056E000E1CFD9FF1200E552E7CFD9FF1200FD0E3E
:1056F000DBCFE9FFFE0EDBCFEAFF1200C6DF58EF7B
:025700002BF08C
:0E5702000401E151E2110EE09A0EE66E040E73
:10571000E66EE1C4E6FFE2C4E6FFBDEC27F0E55229
:10572000E552E552E5520401E16BE26B1200D9CF7C
:10573000E6FFE1CFD9FF040EE1263F0EE76EF90E3A
:10574000DBCF34F0E75034163450DF6ED950F90F08
:105750009DD8C00EEE16ED52E1C434F0E2C435F02F
:10576000F90EDB50341803E1FA0EDB5035181AE05D
:10577000C8DF91D801E184D0F90EDBCFE1F4FA0E55
:10578000DBCFE2F49A0EE66E040EE66EF90EDBCF86
:10579000E6FFFA0EDBCFE6FFA8EC27F0E552E55274
:1057A000E552E552DF50366E376AFB0EDB50362489
:1057B000346EFC0EDB503720356E010E34C0DBFF3B
:1057C000020E35C0DBFFD950010FE96EDACFEAFFD8
:1057D000400ED880EE54000EED5407E2400EF36EFA
:1057E000010EF3CFDBFF020EDB6ADF50366E376A45
:1057F000010EDBCF26F0020EDBCF27F03650265C01
:10580000346E37502758030E34C0DBFFDBCFE6FF82
:10581000E66AFD0EDBCFE6FFFE0EDBCFE6FFDF50D4
:10582000356A9A0F346E040E352234C0E6FF35C057
:10583000E6FF28EC33F0F56E060EE15EF550030E40
:10584000DB50346E356AD950FB0F20D83450EE5EF1
:105850003550ED5A20D814E0D950F90F17D8400E22
:10586000EE26000EED22030EDB50346E356AD95061
:10587000FD0F0CD83450EE263550ED22DF6A6CD780
:10588000D9CFE1FFE552E7CFD9FF1200E96EFF0E55
:10589000DA20EA6E1200D950FB0FF8DFEE50ED105F
:0258A0001200F4
:0E58A200CF6ACE6A12009ED8010A04E0010A05
:1058B00003E1F09801D0F09AA9D095D8010A04E04C
:1058C000010A03E1F19801D0F196A0D08CD80F0A1B
:1058D0003EE0010A3AE0030A36E0010A32E0070A34
:1058E0002DE0010A29E0030A25E0010A21E00F0A60
:1058F0001DE0010A19E0030A15E0010A10E0070A99
:105900000CE0010A08E0030A04E0010A23E1010EA9
:1059100007D0020E05D0040E03D0080E01D0200ED1
:10592000801419D0010E0BD0020E09D0040E07D03E
:10593000080E05D0100E03D0200E01D0400E8514A5
:105940000AD0100E05D0200E03D0400E01D0800EDC
:10595000871401D0000E5AD046D862D8FF0E455C9D
:105960001FE04550E66EEEEC0FF0E552300818E10E
:105970004550E66EABDFE552000904E0FD0EDB505A
:1059800004E009D0FD0EDB5006E034D8EE26000E10
:10599000EE22EE2205D02ED8EE5E000EEE5AEE5A22
:1059A00035D021D83DD8E85035D8EF50030A0DE066
:1059B000010A13E176DFFE0EDBCFE6FF7EDFE55264
:1059C000455028D8030EEF6E0DD0CECFFDF0CFCFCF
:1059D000FEF045501FD8040EEF6EFE0EDBCFE6FF43
:1059E00063DFE55213D0D9CFE6FFE1CFD9FFFE0E3A
:1059F000DB5012004550030DF3CFE9FFF4CFEAFF6F
:105A0000800EE926020EEA22020E1200E552E7CFCE
:105A1000D9FF1200EA6A810FE96E000EEA22120035
:105A2000EA6AB20FE96E000EEA22EF50456E1200EC
:105A300000C5F3FF01C5F4FF120000C524F001C545
:105A400025F002C526F003C527F012009ED8010EEE
:105A5000E66EFE0EDBCFE6FF03D8E552E5529AD0A4
:105A600094D8050EE12689D806E355EC15F0F368C5
:105A70007F0EF46E4AD075D8EE500501005D346E8D
:105A8000EE500159356EEE500259366EEE50035904
:105A9000376E34C0DFFF010E35C0DBFF020E36C0AB
:105AA000DBFF030E37C0DBFFFD0EDB50010A0AE00F
:105AB0001B0A06E0DFCF34F0010EDBCF35F021D03A
:105AC0000A0E01D0640EF36E040EF3CFDBFFDBCFC2
:105AD00037F0386A396A37C02AF038C02BF039C03D
:105AE0002CF0DFCF25F0010EDBCF26F0020EDBCF4E
:105AF00027F0E1EC35F025C034F026C035F0359EB6
:105B0000366A34C0F3FF35C0F4FFD9CFE1FF42D08D
:105B10003CD833D803E355EC15F009D022D800C5A2
:105B2000EEFF01C5EEFF02C5EEFF03C5EEFF32D06A
:105B300005012C6B12002E0EE66EE66A000EE66E74
:105B4000050EE66E35EC35F0E552E552E552E552CC
:105B50000701F26BF36B05012E6B2F6B306B98EF27
:105B60002DF0FE0EDB50040DF3CFE9FFF4CFEAFF7A
:105B7000080EE926050EEA221200040EF36EFE0E50
:105B8000DBCFF4FFF350F45C1200D9CFE6FFE1CF96
:0C5B9000D9FF1200E552E7CFD9FF120048
:045B9C0081D8E65274
:105BA000DF6A080EDF5C11E2000EE66EE66ADFCF08
:105BB000E6FF3FD8E552E552E552E66ADFCFE6FF61
:105BC0000DD8E552E552DF2AECD7E5526ED002013E
:105BD000C669CEEF2DF0FBDF58EF31F061D869D800
:105BE0000BE2FD0EDB5002E1000E01D0010EE66E6D
:105BF0004FD8E552E750EF6E58D052D872D855D0F2
:105C00004FD8E6525ED8EF50346E356A800E345E5F
:105C1000000E355A3450DF6EDF5002E1000E07D01F
:105C200060D804E0FF0EDF02F35001D0DF50E552F0
:105C30003CD036D8E6523DD829E24BD808E3345060
:105C40008008FF0E355403E34CD80CE109D041D84D
:105C50000BE234507F08000E355406E242D802E0D1
:105C6000DF6A11D0DF680FD0FC0EDB50DF6E39D851
:105C700005E0FC0EDB50FF0DF35002D0FC0EDB50B4
:105C8000DF6E800EDF261DD8DFCFEFFFE5520DD08F
:105C9000FE0EDB50EA6A760FE96E000EEA22120071
:105CA000D9CFE6FFE1CFD9FF1200E552E7CFD9FF08
:105CB0001200080EF36EFE0EDBCFF4FFF350F45C1F
:105CC0001200FE0EDB50EA6AB40FE96E020EEA2201
:105CD0001200FC0EDBCF34F0FD0EDBCF35F0353497
:085CE0001200D6DFEF501200A4
:085CE8000102040810204080B5
:105CF00001000200040008001000200040008000A5
:105D00000001000200040008001000200040008094
:105D100001031B040406010107070707070707071C
:105D2000010401040202010207070707070707072A
:105D30000101010401110702060804030404010122
:105D4000070707070A01050A07070707010A0A0AE2
:105D500001010304010601040707070707070707F6
:105D60000102010A010A01090404040404040404F0
:105D7000010204040106010E0808080808080808C2
:105D800001020301010605010109010101070607DE
:105D900001020101010101020701010107070101DF
:105DA00001010304010101020101070A02020707C0
:105DB00007020310050604070A0A0A070707070770
:105DC0000102030405060102050505050505050593
:105DD0000102030A01070103040404040404040487
:105DE0000102030704010101050505050505050577
:105DF0000102040605060608010701010101080F5A
:105E0000070707070707070701010101050101014E
:105E10001200300007000000400000000C000000ED
:105E2000800000001000400000001000540000102E
:105E3000D8CFE4FFE0CFE4FFE46EDACFE4FFE2CFB7
:105E4000DAFFE9CFE4FFEACFE4FFF6CFE4FFF7CFD4
:105E5000E4FFF8CFE4FFF5CFE4FFF3CFE4FFF4CFA6
:105E6000E4FFE6529EA204D09E928AEC36F05AD00D
:105E7000F0A203D0F092E66A05D0F0A406D0F09428
:105E8000010EE66ED1EC2CF028D0F2A028D0815083
:105E9000176E1518166E1750156EF29016A805D0CD
:105EA000100E1514E66E020E56D816AA05D0200E56
:105EB0001514E66E030E4FD816AC05D0400E15141F
:105EC000E66E040E48D816AE2DD0800E1514E66E80
:105ED000050EE66EACEC2CF0E552E55223D0A45052
:105EE000200B06E0A350200B03E005EC33F01AD0A2
:105EF000A450100B06E0A350100B03E01EEC33F08F
:105F000011D09E50200B06E09D50200B03E0F1ECD9
:105F100032F008D09E50100B05E09D50100B02E0AF
:105F200016EC33F0E552E5CFF4FFE5CFF3FFE5CF14
:105F3000F5FFE5CFF8FFE5CFF7FFE5CFF6FFE5CFBB
:105F4000EAFFE5CFE9FFE5CFDAFFE550E5CFE0FF77
:105F5000E5CFD8FF1000E66EACEC2CF0E552E55230
:025F600012002D
:0E5F6200F29C18881982F28C05012F2B0A0E72
:105F70002F5D23E32F6BF29C18881984F28C0501A6
:105F80002D2B0A0E2D5D19E32D6BF29C18881986B6
:105F9000F28CF29C18881988F28C2C2B3C0E2C5D0C
:105FA0000CE32C6B0701F22B000EF323A00EF25D25
:105FB000FF0EF35902E3F26BF36B1200185001E18C
:105FC000000CF29C1850126E400E1214186E30C560
:105FD00014F00501306B1950136E196AF28C12A27D
:105FE00002D010EC20F012A002D035EC10F01AA074
:105FF00008D00401DF2B000EE02343EC31F051EC1C
:1060000031F012AE02D076EC1CF0135030E013A049
:1060100026D0145005012E2714501FE00501002B37
:10602000000E012302230323025001E002060001B7
:10603000B851010A10E0030A0EE0010A0CE00B0A55
:106040000AE0010A08E0030A06E00501042B000E3D
:106050000523062307231406DFD760EC20F00A0E81
:1060600005012E5D04E30A0E2E5F7BDFF8D7100ECC
:1060700013141200CEEC2DF026EF19F0DBC0F3FF65
:06608000DCC0F4FF120079
:0A6086007DD8FE0EDB50040DF35030
:10609000F76A020F6CD8000EDFCF26F0010EDBCFBF
:1060A00027F0265001E1275006E0E868261806E1AF
:1060B000E868271803E1F36AF46A08D0DECF34F009
:1060C000DDCF35F034C0F3FF35C0F4FF61D059D8CF
:1060D00065D8000ED880F354000EF45403E3F36A3D
:1060E000F46A13D0FE0EDB50040DF350F76A000F74
:1060F0003ED8DECF34F0DDCF35F0000E3426700E02
:10610000352234C0F3FF35C0F4FF42D0D9CFE6FFCB
:10611000E1CFD9FF43D8F3CF34F0F4CF35F0000E00
:10612000D880F354000EF45408E3240E346E6D0E40
:10613000356E34C0F3FFF46E05D0FE0EDBCFE6FF04
:10614000C6DFE552E552E7CFD9FF12008CC4E6FF67
:10615000BEDFE552F3CFDBF0F4CFDCF00001F3500B
:10616000F41004E0160EDB27000EDC231200F66E9E
:10617000700EF7220900F5CFDEFF0A00F5CFDDFF34
:106180001200D9CFE6FFE1CFD9FF020EE1261200BF
:10619000D9CFE1FFE552E7CFD9FF1200FE0EDBCFEA
:0861A000E6FF71DFE552120079
:0861A800070EB46E000E886EB4
:1061B000876E866E856E846E836E826E816E806E53
:1061C000916E906E8F6E8E6E8D6E8C6E8B6E8A6EF3
:1061D000896E92689368BF0E946E956A700E966E83
:1061E0009F0E976EE40E986E0F0E996E9A68C16EB0
:1061F000070EC06EF19EB0989C8EA26A9F6AA06A3C
:106200009D6AA36AA56AE66A010EE66E050EE66E51
:1062100002EC35F0E552E552E5529F86D08E9E960F
:106220009382F06AF288F09EF098F192F09AF16A07
:10623000F28CF28E1200D9CFE6FFE1CFD9FFE65201
:10624000B3DFDF6A100EDF5C0AE2DF50EA6AB40FE8
